{
  "_format": "hh-sol-artifact-1",
  "contractName": "PostRegistry",
  "sourceName": "contracts/PostRegistry.sol",
  "abi": [
    {
      "anonymous": false,
      "inputs": [
        {
          "indexed": true,
          "internalType": "uint256",
          "name": "postId",
          "type": "uint256"
        },
        {
          "indexed": true,
          "internalType": "address",
          "name": "author",
          "type": "address"
        },
        {
          "indexed": false,
          "internalType": "string",
          "name": "streamId",
          "type": "string"
        },
        {
          "indexed": false,
          "internalType": "uint256",
          "name": "timestamp",
          "type": "uint256"
        },
        {
          "indexed": false,
          "internalType": "string",
          "name": "transactionHash",
          "type": "string"
        }
      ],
      "name": "PostCreated",
      "type": "event"
    },
    {
      "inputs": [
        {
          "internalType": "string",
          "name": "_streamId",
          "type": "string"
        }
      ],
      "name": "createPost",
      "outputs": [],
      "stateMutability": "nonpayable",
      "type": "function"
    },
    {
      "inputs": [],
      "name": "getAllPosts",
      "outputs": [
        {
          "components": [
            {
              "internalType": "address",
              "name": "author",
              "type": "address"
            },
            {
              "internalType": "string",
              "name": "streamId",
              "type": "string"
            },
            {
              "internalType": "uint256",
              "name": "timestamp",
              "type": "uint256"
            },
            {
              "internalType": "uint256",
              "name": "likes",
              "type": "uint256"
            },
            {
              "internalType": "uint256",
              "name": "comments",
              "type": "uint256"
            },
            {
              "internalType": "uint256",
              "name": "reposts",
              "type": "uint256"
            },
            {
              "internalType": "string",
              "name": "transactionHash",
              "type": "string"
            }
          ],
          "internalType": "struct PostRegistry.Post[]",
          "name": "",
          "type": "tuple[]"
        }
      ],
      "stateMutability": "view",
      "type": "function"
    },
    {
      "inputs": [
        {
          "internalType": "string",
          "name": "_streamId",
          "type": "string"
        }
      ],
      "name": "getTransactionHash",
      "outputs": [
        {
          "internalType": "string",
          "name": "",
          "type": "string"
        }
      ],
      "stateMutability": "view",
      "type": "function"
    },
    {
      "inputs": [],
      "name": "postCount",
      "outputs": [
        {
          "internalType": "uint256",
          "name": "",
          "type": "uint256"
        }
      ],
      "stateMutability": "view",
      "type": "function"
    },
    {
      "inputs": [
        {
          "internalType": "uint256",
          "name": "",
          "type": "uint256"
        }
      ],
      "name": "posts",
      "outputs": [
        {
          "internalType": "address",
          "name": "author",
          "type": "address"
        },
        {
          "internalType": "string",
          "name": "streamId",
          "type": "string"
        },
        {
          "internalType": "uint256",
          "name": "timestamp",
          "type": "uint256"
        },
        {
          "internalType": "uint256",
          "name": "likes",
          "type": "uint256"
        },
        {
          "internalType": "uint256",
          "name": "comments",
          "type": "uint256"
        },
        {
          "internalType": "uint256",
          "name": "reposts",
          "type": "uint256"
        },
        {
          "internalType": "string",
          "name": "transactionHash",
          "type": "string"
        }
      ],
      "stateMutability": "view",
      "type": "function"
    },
    {
      "inputs": [
        {
          "internalType": "string",
          "name": "",
          "type": "string"
        }
      ],
      "name": "streamToTx",
      "outputs": [
        {
          "internalType": "string",
          "name": "",
          "type": "string"
        }
      ],
      "stateMutability": "view",
      "type": "function"
    }
  ],
  "bytecode": "0x608060405234801561001057600080fd5b5061154e806100206000396000f3fe608060405234801561001057600080fd5b50600436106100625760003560e01c80630b1e7f831461006757806317906c2e1461009d57806330561100146100bb5780635d46fa18146100d9578063c7303c6114610109578063d322367e14610125575b600080fd5b610081600480360381019061007c9190610a74565b610155565b6040516100949796959493929190610b81565b60405180910390f35b6100a56102c7565b6040516100b29190610bfe565b60405180910390f35b6100c36102cd565b6040516100d09190610de6565b60405180910390f35b6100f360048036038101906100ee9190610f3d565b61053d565b6040516101009190610f86565b60405180910390f35b610123600480360381019061011e9190610f3d565b6105ed565b005b61013f600480360381019061013a9190610f3d565b6107ab565b60405161014c9190610f86565b60405180910390f35b60006020528060005260406000206000915090508060000160009054906101000a900473ffffffffffffffffffffffffffffffffffffffff169080600101805461019e90610fd7565b80601f01602080910402602001604051908101604052809291908181526020018280546101ca90610fd7565b80156102175780601f106101ec57610100808354040283529160200191610217565b820191906000526020600020905b8154815290600101906020018083116101fa57829003601f168201915b50505050509080600201549080600301549080600401549080600501549080600601805461024490610fd7565b80601f016020809104026020016040519081016040528092919081815260200182805461027090610fd7565b80156102bd5780601f10610292576101008083540402835291602001916102bd565b820191906000526020600020905b8154815290600101906020018083116102a057829003601f168201915b5050505050905087565b60025481565b6060600060025467ffffffffffffffff8111156102ed576102ec610e12565b5b60405190808252806020026020018201604052801561032657816020015b6103136109d7565b81526020019060019003908161030b5790505b5090506000600190505b6002548111610535576000808281526020019081526020016000206040518060e00160405290816000820160009054906101000a900473ffffffffffffffffffffffffffffffffffffffff1673ffffffffffffffffffffffffffffffffffffffff1673ffffffffffffffffffffffffffffffffffffffff1681526020016001820180546103bc90610fd7565b80601f01602080910402602001604051908101604052809291908181526020018280546103e890610fd7565b80156104355780601f1061040a57610100808354040283529160200191610435565b820191906000526020600020905b81548152906001019060200180831161041857829003601f168201915b505050505081526020016002820154815260200160038201548152602001600482015481526020016005820154815260200160068201805461047690610fd7565b80601f01602080910402602001604051908101604052809291908181526020018280546104a290610fd7565b80156104ef5780601f106104c4576101008083540402835291602001916104ef565b820191906000526020600020905b8154815290600101906020018083116104d257829003601f168201915b505050505081525050826001836105069190611037565b815181106105175761051661106b565b5b6020026020010181905250808061052d9061109a565b915050610330565b508091505090565b606060018260405161054f919061111e565b9081526020016040518091039020805461056890610fd7565b80601f016020809104026020016040519081016040528092919081815260200182805461059490610fd7565b80156105e15780601f106105b6576101008083540402835291602001916105e1565b820191906000526020600020905b8154815290600101906020018083116105c457829003601f168201915b50505050509050919050565b600260008154809291906106009061109a565b919050555060006106263373ffffffffffffffffffffffffffffffffffffffff16610861565b90506040518060e001604052803373ffffffffffffffffffffffffffffffffffffffff16815260200183815260200142815260200160008152602001600081526020016000815260200182815250600080600254815260200190815260200160002060008201518160000160006101000a81548173ffffffffffffffffffffffffffffffffffffffff021916908373ffffffffffffffffffffffffffffffffffffffff16021790555060208201518160010190816106e491906112e1565b5060408201518160020155606082015181600301556080820151816004015560a0820151816005015560c082015181600601908161072291906112e1565b5090505080600183604051610737919061111e565b9081526020016040518091039020908161075191906112e1565b503373ffffffffffffffffffffffffffffffffffffffff166002547fc23cda9f84c5ec7c256cf37c6223ddabbe79ebaeded3ed49a20f5b740b857c3b84428560405161079f939291906113b3565b60405180910390a35050565b60018180516020810182018051848252602083016020850120818352809550505050505060009150905080546107e090610fd7565b80601f016020809104026020016040519081016040528092919081815260200182805461080c90610fd7565b80156108595780601f1061082e57610100808354040283529160200191610859565b820191906000526020600020905b81548152906001019060200180831161083c57829003601f168201915b505050505081565b6060600082036108a8576040518060400160405280600381526020017f307830000000000000000000000000000000000000000000000000000000000081525090506109d2565b6000604067ffffffffffffffff8111156108c5576108c4610e12565b5b6040519080825280601f01601f1916602001820160405280156108f75781602001600182028036833780820191505090505b5090506000603f90505b600081101580156109125750600084115b156109ad576000600f85169050600a8160ff161061093f578060576109379190611405565b60f81b610950565b80603061094c9190611405565b60f81b5b8383815181106109635761096261106b565b5b60200101907effffffffffffffffffffffffffffffffffffffffffffffffffffffffffffff1916908160001a905350600485901c94505080806109a59061143a565b915050610901565b50806040516020016109bf91906114f6565b6040516020818303038152906040529150505b919050565b6040518060e00160405280600073ffffffffffffffffffffffffffffffffffffffff1681526020016060815260200160008152602001600081526020016000815260200160008152602001606081525090565b6000604051905090565b600080fd5b600080fd5b6000819050919050565b610a5181610a3e565b8114610a5c57600080fd5b50565b600081359050610a6e81610a48565b92915050565b600060208284031215610a8a57610a89610a34565b5b6000610a9884828501610a5f565b91505092915050565b600073ffffffffffffffffffffffffffffffffffffffff82169050919050565b6000610acc82610aa1565b9050919050565b610adc81610ac1565b82525050565b600081519050919050565b600082825260208201905092915050565b60005b83811015610b1c578082015181840152602081019050610b01565b60008484015250505050565b6000601f19601f8301169050919050565b6000610b4482610ae2565b610b4e8185610aed565b9350610b5e818560208601610afe565b610b6781610b28565b840191505092915050565b610b7b81610a3e565b82525050565b600060e082019050610b96600083018a610ad3565b8181036020830152610ba88189610b39565b9050610bb76040830188610b72565b610bc46060830187610b72565b610bd16080830186610b72565b610bde60a0830185610b72565b81810360c0830152610bf08184610b39565b905098975050505050505050565b6000602082019050610c136000830184610b72565b92915050565b600081519050919050565b600082825260208201905092915050565b6000819050602082019050919050565b610c4e81610ac1565b82525050565b600082825260208201905092915050565b6000610c7082610ae2565b610c7a8185610c54565b9350610c8a818560208601610afe565b610c9381610b28565b840191505092915050565b610ca781610a3e565b82525050565b600060e083016000830151610cc56000860182610c45565b5060208301518482036020860152610cdd8282610c65565b9150506040830151610cf26040860182610c9e565b506060830151610d056060860182610c9e565b506080830151610d186080860182610c9e565b5060a0830151610d2b60a0860182610c9e565b5060c083015184820360c0860152610d438282610c65565b9150508091505092915050565b6000610d5c8383610cad565b905092915050565b6000602082019050919050565b6000610d7c82610c19565b610d868185610c24565b935083602082028501610d9885610c35565b8060005b85811015610dd45784840389528151610db58582610d50565b9450610dc083610d64565b925060208a01995050600181019050610d9c565b50829750879550505050505092915050565b60006020820190508181036000830152610e008184610d71565b905092915050565b600080fd5b600080fd5b7f4e487b7100000000000000000000000000000000000000000000000000000000600052604160045260246000fd5b610e4a82610b28565b810181811067ffffffffffffffff82111715610e6957610e68610e12565b5b80604052505050565b6000610e7c610a2a565b9050610e888282610e41565b919050565b600067ffffffffffffffff821115610ea857610ea7610e12565b5b610eb182610b28565b9050602081019050919050565b82818337600083830152505050565b6000610ee0610edb84610e8d565b610e72565b905082815260208101848484011115610efc57610efb610e0d565b5b610f07848285610ebe565b509392505050565b600082601f830112610f2457610f23610e08565b5b8135610f34848260208601610ecd565b91505092915050565b600060208284031215610f5357610f52610a34565b5b600082013567ffffffffffffffff811115610f7157610f70610a39565b5b610f7d84828501610f0f565b91505092915050565b60006020820190508181036000830152610fa08184610b39565b905092915050565b7f4e487b7100000000000000000000000000000000000000000000000000000000600052602260045260246000fd5b60006002820490506001821680610fef57607f821691505b60208210810361100257611001610fa8565b5b50919050565b7f4e487b7100000000000000000000000000000000000000000000000000000000600052601160045260246000fd5b600061104282610a3e565b915061104d83610a3e565b925082820390508181111561106557611064611008565b5b92915050565b7f4e487b7100000000000000000000000000000000000000000000000000000000600052603260045260246000fd5b60006110a582610a3e565b91507fffffffffffffffffffffffffffffffffffffffffffffffffffffffffffffffff82036110d7576110d6611008565b5b600182019050919050565b600081905092915050565b60006110f882610ae2565b61110281856110e2565b9350611112818560208601610afe565b80840191505092915050565b600061112a82846110ed565b915081905092915050565b60008190508160005260206000209050919050565b60006020601f8301049050919050565b600082821b905092915050565b6000600883026111977fffffffffffffffffffffffffffffffffffffffffffffffffffffffffffffffff8261115a565b6111a1868361115a565b95508019841693508086168417925050509392505050565b6000819050919050565b60006111de6111d96111d484610a3e565b6111b9565b610a3e565b9050919050565b6000819050919050565b6111f8836111c3565b61120c611204826111e5565b848454611167565b825550505050565b600090565b611221611214565b61122c8184846111ef565b505050565b5b8181101561125057611245600082611219565b600181019050611232565b5050565b601f8211156112955761126681611135565b61126f8461114a565b8101602085101561127e578190505b61129261128a8561114a565b830182611231565b50505b505050565b600082821c905092915050565b60006112b86000198460080261129a565b1980831691505092915050565b60006112d183836112a7565b9150826002028217905092915050565b6112ea82610ae2565b67ffffffffffffffff81111561130357611302610e12565b5b61130d8254610fd7565b611318828285611254565b600060209050601f83116001811461134b5760008415611339578287015190505b61134385826112c5565b8655506113ab565b601f19841661135986611135565b60005b828110156113815784890151825560018201915060208501945060208101905061135c565b8683101561139e578489015161139a601f8916826112a7565b8355505b6001600288020188555050505b505050505050565b600060608201905081810360008301526113cd8186610b39565b90506113dc6020830185610b72565b81810360408301526113ee8184610b39565b9050949350505050565b600060ff82169050919050565b6000611410826113f8565b915061141b836113f8565b9250828201905060ff81111561143457611433611008565b5b92915050565b600061144582610a3e565b91506000820361145857611457611008565b5b600182039050919050565b7f3078000000000000000000000000000000000000000000000000000000000000600082015250565b60006114996002836110e2565b91506114a482611463565b600282019050919050565b600081519050919050565b600081905092915050565b60006114d0826114af565b6114da81856114ba565b93506114ea818560208601610afe565b80840191505092915050565b60006115018261148c565b915061150d82846114c5565b91508190509291505056fea2646970667358221220711f59753ec90f271d761ccaa2d0bf4f207e3fb6b3586c51f2c12f0ef8355e6264736f6c63430008140033",
  "linkReferences": {},
  "deployedLinkReferences": {}
}