{
  "_format": "hh-sol-artifact-1",
  "contractName": "PointsContract",
  "sourceName": "contracts/PointsContract.sol",
  "abi": [
    {
      "inputs": [
        {
          "internalType": "address",
          "name": "initialOwner",
          "type": "address"
        }
      ],
      "stateMutability": "nonpayable",
      "type": "constructor"
    },
    {
      "inputs": [
        {
          "internalType": "address",
          "name": "owner",
          "type": "address"
        }
      ],
      "name": "OwnableInvalidOwner",
      "type": "error"
    },
    {
      "inputs": [
        {
          "internalType": "address",
          "name": "account",
          "type": "address"
        }
      ],
      "name": "OwnableUnauthorizedAccount",
      "type": "error"
    },
    {
      "anonymous": false,
      "inputs": [
        {
          "indexed": true,
          "internalType": "address",
          "name": "user",
          "type": "address"
        },
        {
          "indexed": false,
          "internalType": "string",
          "name": "streamId",
          "type": "string"
        },
        {
          "indexed": false,
          "internalType": "uint256",
          "name": "points",
          "type": "uint256"
        }
      ],
      "name": "CommentAdded",
      "type": "event"
    },
    {
      "anonymous": false,
      "inputs": [
        {
          "indexed": true,
          "internalType": "address",
          "name": "user",
          "type": "address"
        },
        {
          "indexed": false,
          "internalType": "string",
          "name": "streamId",
          "type": "string"
        },
        {
          "indexed": false,
          "internalType": "uint256",
          "name": "points",
          "type": "uint256"
        }
      ],
      "name": "LikeAdded",
      "type": "event"
    },
    {
      "anonymous": false,
      "inputs": [
        {
          "indexed": true,
          "internalType": "address",
          "name": "previousOwner",
          "type": "address"
        },
        {
          "indexed": true,
          "internalType": "address",
          "name": "newOwner",
          "type": "address"
        }
      ],
      "name": "OwnershipTransferred",
      "type": "event"
    },
    {
      "anonymous": false,
      "inputs": [
        {
          "indexed": true,
          "internalType": "address",
          "name": "user",
          "type": "address"
        },
        {
          "indexed": false,
          "internalType": "uint256",
          "name": "amount",
          "type": "uint256"
        },
        {
          "indexed": false,
          "internalType": "string",
          "name": "reason",
          "type": "string"
        }
      ],
      "name": "PointsAdded",
      "type": "event"
    },
    {
      "anonymous": false,
      "inputs": [
        {
          "indexed": true,
          "internalType": "address",
          "name": "user",
          "type": "address"
        },
        {
          "indexed": false,
          "internalType": "string",
          "name": "streamId",
          "type": "string"
        },
        {
          "indexed": false,
          "internalType": "uint256",
          "name": "points",
          "type": "uint256"
        }
      ],
      "name": "PostCreated",
      "type": "event"
    },
    {
      "anonymous": false,
      "inputs": [
        {
          "indexed": true,
          "internalType": "address",
          "name": "user",
          "type": "address"
        },
        {
          "indexed": false,
          "internalType": "string",
          "name": "streamId",
          "type": "string"
        },
        {
          "indexed": false,
          "internalType": "uint256",
          "name": "points",
          "type": "uint256"
        }
      ],
      "name": "RepostAdded",
      "type": "event"
    },
    {
      "inputs": [],
      "name": "POINTS_PER_COMMENT",
      "outputs": [
        {
          "internalType": "uint256",
          "name": "",
          "type": "uint256"
        }
      ],
      "stateMutability": "view",
      "type": "function"
    },
    {
      "inputs": [],
      "name": "POINTS_PER_LIKE",
      "outputs": [
        {
          "internalType": "uint256",
          "name": "",
          "type": "uint256"
        }
      ],
      "stateMutability": "view",
      "type": "function"
    },
    {
      "inputs": [],
      "name": "POINTS_PER_POST",
      "outputs": [
        {
          "internalType": "uint256",
          "name": "",
          "type": "uint256"
        }
      ],
      "stateMutability": "view",
      "type": "function"
    },
    {
      "inputs": [],
      "name": "POINTS_PER_REPOST",
      "outputs": [
        {
          "internalType": "uint256",
          "name": "",
          "type": "uint256"
        }
      ],
      "stateMutability": "view",
      "type": "function"
    },
    {
      "inputs": [
        {
          "internalType": "string",
          "name": "streamId",
          "type": "string"
        }
      ],
      "name": "addComment",
      "outputs": [],
      "stateMutability": "nonpayable",
      "type": "function"
    },
    {
      "inputs": [
        {
          "internalType": "string",
          "name": "streamId",
          "type": "string"
        }
      ],
      "name": "addLike",
      "outputs": [],
      "stateMutability": "nonpayable",
      "type": "function"
    },
    {
      "inputs": [
        {
          "internalType": "address",
          "name": "user",
          "type": "address"
        },
        {
          "internalType": "uint256",
          "name": "amount",
          "type": "uint256"
        },
        {
          "internalType": "string",
          "name": "reason",
          "type": "string"
        }
      ],
      "name": "addPoints",
      "outputs": [],
      "stateMutability": "nonpayable",
      "type": "function"
    },
    {
      "inputs": [
        {
          "internalType": "string",
          "name": "streamId",
          "type": "string"
        }
      ],
      "name": "addRepost",
      "outputs": [],
      "stateMutability": "nonpayable",
      "type": "function"
    },
    {
      "inputs": [
        {
          "internalType": "string",
          "name": "streamId",
          "type": "string"
        }
      ],
      "name": "createPost",
      "outputs": [],
      "stateMutability": "nonpayable",
      "type": "function"
    },
    {
      "inputs": [
        {
          "internalType": "string",
          "name": "streamId",
          "type": "string"
        }
      ],
      "name": "getPostAuthor",
      "outputs": [
        {
          "internalType": "address",
          "name": "",
          "type": "address"
        }
      ],
      "stateMutability": "view",
      "type": "function"
    },
    {
      "inputs": [
        {
          "internalType": "string",
          "name": "streamId",
          "type": "string"
        }
      ],
      "name": "getPostPoints",
      "outputs": [
        {
          "internalType": "uint256",
          "name": "",
          "type": "uint256"
        }
      ],
      "stateMutability": "view",
      "type": "function"
    },
    {
      "inputs": [
        {
          "internalType": "address",
          "name": "user",
          "type": "address"
        }
      ],
      "name": "getUserPoints",
      "outputs": [
        {
          "internalType": "uint256",
          "name": "",
          "type": "uint256"
        }
      ],
      "stateMutability": "view",
      "type": "function"
    },
    {
      "inputs": [],
      "name": "owner",
      "outputs": [
        {
          "internalType": "address",
          "name": "",
          "type": "address"
        }
      ],
      "stateMutability": "view",
      "type": "function"
    },
    {
      "inputs": [],
      "name": "renounceOwnership",
      "outputs": [],
      "stateMutability": "nonpayable",
      "type": "function"
    },
    {
      "inputs": [
        {
          "internalType": "address",
          "name": "newOwner",
          "type": "address"
        }
      ],
      "name": "transferOwnership",
      "outputs": [],
      "stateMutability": "nonpayable",
      "type": "function"
    }
  ],
  "bytecode": "0x60806040523480156200001157600080fd5b50604051620018c1380380620018c18339818101604052810190620000379190620001f4565b80600073ffffffffffffffffffffffffffffffffffffffff168173ffffffffffffffffffffffffffffffffffffffff1603620000ad5760006040517f1e4fbdf7000000000000000000000000000000000000000000000000000000008152600401620000a4919062000237565b60405180910390fd5b620000be81620000c660201b60201c565b505062000254565b60008060009054906101000a900473ffffffffffffffffffffffffffffffffffffffff169050816000806101000a81548173ffffffffffffffffffffffffffffffffffffffff021916908373ffffffffffffffffffffffffffffffffffffffff1602179055508173ffffffffffffffffffffffffffffffffffffffff168173ffffffffffffffffffffffffffffffffffffffff167f8be0079c531659141344cd1fd0a4f28419497f9722a3daafe3b4186f6b6457e060405160405180910390a35050565b600080fd5b600073ffffffffffffffffffffffffffffffffffffffff82169050919050565b6000620001bc826200018f565b9050919050565b620001ce81620001af565b8114620001da57600080fd5b50565b600081519050620001ee81620001c3565b92915050565b6000602082840312156200020d576200020c6200018a565b5b60006200021d84828501620001dd565b91505092915050565b6200023181620001af565b82525050565b60006020820190506200024e600083018462000226565b92915050565b61165d80620002646000396000f3fe608060405234801561001057600080fd5b50600436106100f55760003560e01c8063843b438611610097578063bdddcbf311610066578063bdddcbf314610260578063c7303c611461027c578063d95b316a14610298578063f2fde38b146102b6576100f5565b8063843b4386146101d85780638da5cb5b146101f4578063aeefe31f14610212578063ba1b25ab14610242576100f5565b80635c88e93e116100d35780635c88e93e1461016657806361b65f30146101825780636672d4231461019e578063715018a6146101ce576100f5565b8063318298be146100fa57806333e74e2a146101185780635234a65c14610136575b600080fd5b6101026102d2565b60405161010f9190610f68565b60405180910390f35b6101206102d7565b60405161012d9190610f68565b60405180910390f35b610150600480360381019061014b91906110dd565b6102dc565b60405161015d9190611167565b60405180910390f35b610180600480360381019061017b91906110dd565b610324565b005b61019c600480360381019061019791906111da565b6104c3565b005b6101b860048036038101906101b391906110dd565b61062b565b6040516101c59190610f68565b60405180910390f35b6101d6610745565b005b6101f260048036038101906101ed91906110dd565b610759565b005b6101fc6108f8565b6040516102099190611167565b60405180910390f35b61022c60048036038101906102279190611249565b610921565b6040516102399190610f68565b60405180910390f35b61024a61096d565b6040516102579190610f68565b60405180910390f35b61027a600480360381019061027591906110dd565b610972565b005b610296600480360381019061029191906110dd565b610b11565b005b6102a0610d71565b6040516102ad9190610f68565b60405180910390f35b6102d060048036038101906102cb9190611249565b610d76565b005b600281565b600a81565b60006002826040516102ee91906112e7565b908152602001604051809103902060009054906101000a900473ffffffffffffffffffffffffffffffffffffffff169050919050565b6000815111610368576040517f08c379a000000000000000000000000000000000000000000000000000000000815260040161035f9061135b565b60405180910390fd5b600073ffffffffffffffffffffffffffffffffffffffff1660028260405161039091906112e7565b908152602001604051809103902060009054906101000a900473ffffffffffffffffffffffffffffffffffffffff1673ffffffffffffffffffffffffffffffffffffffff1603610415576040517f08c379a000000000000000000000000000000000000000000000000000000000815260040161040c906113c7565b60405180910390fd5b6002600160003373ffffffffffffffffffffffffffffffffffffffff1673ffffffffffffffffffffffffffffffffffffffff16815260200190815260200160002060000160008282546104689190611416565b925050819055503373ffffffffffffffffffffffffffffffffffffffff167f3edf2cfb29f2efa815bfa9e6cc27e5c51b7c02ec53bc3cabca94833db7b293fb8260026040516104b8929190611483565b60405180910390a250565b6104cb610dfc565b600073ffffffffffffffffffffffffffffffffffffffff168373ffffffffffffffffffffffffffffffffffffffff160361053a576040517f08c379a0000000000000000000000000000000000000000000000000000000008152600401610531906114ff565b60405180910390fd5b6000821161057d576040517f08c379a00000000000000000000000000000000000000000000000000000000081526004016105749061156b565b60405180910390fd5b81600160008573ffffffffffffffffffffffffffffffffffffffff1673ffffffffffffffffffffffffffffffffffffffff16815260200190815260200160002060000160008282546105cf9190611416565b925050819055508273ffffffffffffffffffffffffffffffffffffffff167f53370cf37058fbb70f95a5950efa0ff8304d84707adab9046a6bf98aba15cb0b838360405161061e92919061158b565b60405180910390a2505050565b60008060028360405161063e91906112e7565b908152602001604051809103902060009054906101000a900473ffffffffffffffffffffffffffffffffffffffff169050600073ffffffffffffffffffffffffffffffffffffffff168173ffffffffffffffffffffffffffffffffffffffff16036106de576040517f08c379a00000000000000000000000000000000000000000000000000000000081526004016106d5906113c7565b60405180910390fd5b600160008273ffffffffffffffffffffffffffffffffffffffff1673ffffffffffffffffffffffffffffffffffffffff1681526020019081526020016000206001018360405161072e91906112e7565b908152602001604051809103902054915050919050565b61074d610dfc565b6107576000610e83565b565b600081511161079d576040517f08c379a00000000000000000000000000000000000000000000000000000000081526004016107949061135b565b60405180910390fd5b600073ffffffffffffffffffffffffffffffffffffffff166002826040516107c591906112e7565b908152602001604051809103902060009054906101000a900473ffffffffffffffffffffffffffffffffffffffff1673ffffffffffffffffffffffffffffffffffffffff160361084a576040517f08c379a0000000000000000000000000000000000000000000000000000000008152600401610841906113c7565b60405180910390fd5b6005600160003373ffffffffffffffffffffffffffffffffffffffff1673ffffffffffffffffffffffffffffffffffffffff168152602001908152602001600020600001600082825461089d9190611416565b925050819055503373ffffffffffffffffffffffffffffffffffffffff167f14c944879be2937b6600ea700d977dab107e3321e3ea593177590ccf12700cf48260056040516108ed929190611483565b60405180910390a250565b60008060009054906101000a900473ffffffffffffffffffffffffffffffffffffffff16905090565b6000600160008373ffffffffffffffffffffffffffffffffffffffff1673ffffffffffffffffffffffffffffffffffffffff168152602001908152602001600020600001549050919050565b600381565b60008151116109b6576040517f08c379a00000000000000000000000000000000000000000000000000000000081526004016109ad9061135b565b60405180910390fd5b600073ffffffffffffffffffffffffffffffffffffffff166002826040516109de91906112e7565b908152602001604051809103902060009054906101000a900473ffffffffffffffffffffffffffffffffffffffff1673ffffffffffffffffffffffffffffffffffffffff1603610a63576040517f08c379a0000000000000000000000000000000000000000000000000000000008152600401610a5a906113c7565b60405180910390fd5b6003600160003373ffffffffffffffffffffffffffffffffffffffff1673ffffffffffffffffffffffffffffffffffffffff1681526020019081526020016000206000016000828254610ab69190611416565b925050819055503373ffffffffffffffffffffffffffffffffffffffff167f16159330b564e80dfbef4eefb5aab51a5125fa530a4dd8b2b3e303bed873db82826003604051610b06929190611483565b60405180910390a250565b6000815111610b55576040517f08c379a0000000000000000000000000000000000000000000000000000000008152600401610b4c9061135b565b60405180910390fd5b600073ffffffffffffffffffffffffffffffffffffffff16600282604051610b7d91906112e7565b908152602001604051809103902060009054906101000a900473ffffffffffffffffffffffffffffffffffffffff1673ffffffffffffffffffffffffffffffffffffffff1614610c02576040517f08c379a0000000000000000000000000000000000000000000000000000000008152600401610bf990611607565b60405180910390fd5b33600282604051610c1391906112e7565b908152602001604051809103902060006101000a81548173ffffffffffffffffffffffffffffffffffffffff021916908373ffffffffffffffffffffffffffffffffffffffff160217905550600a600160003373ffffffffffffffffffffffffffffffffffffffff1673ffffffffffffffffffffffffffffffffffffffff16815260200190815260200160002060010182604051610cb191906112e7565b908152602001604051809103902081905550600a600160003373ffffffffffffffffffffffffffffffffffffffff1673ffffffffffffffffffffffffffffffffffffffff1681526020019081526020016000206000016000828254610d169190611416565b925050819055503373ffffffffffffffffffffffffffffffffffffffff167fb5a2d6ecdc9bd09637c1de2e8e02011abe041770e16737ec2adfa54c8e0581c782600a604051610d66929190611483565b60405180910390a250565b600581565b610d7e610dfc565b600073ffffffffffffffffffffffffffffffffffffffff168173ffffffffffffffffffffffffffffffffffffffff1603610df05760006040517f1e4fbdf7000000000000000000000000000000000000000000000000000000008152600401610de79190611167565b60405180910390fd5b610df981610e83565b50565b610e04610f47565b73ffffffffffffffffffffffffffffffffffffffff16610e226108f8565b73ffffffffffffffffffffffffffffffffffffffff1614610e8157610e45610f47565b6040517f118cdaa7000000000000000000000000000000000000000000000000000000008152600401610e789190611167565b60405180910390fd5b565b60008060009054906101000a900473ffffffffffffffffffffffffffffffffffffffff169050816000806101000a81548173ffffffffffffffffffffffffffffffffffffffff021916908373ffffffffffffffffffffffffffffffffffffffff1602179055508173ffffffffffffffffffffffffffffffffffffffff168173ffffffffffffffffffffffffffffffffffffffff167f8be0079c531659141344cd1fd0a4f28419497f9722a3daafe3b4186f6b6457e060405160405180910390a35050565b600033905090565b6000819050919050565b610f6281610f4f565b82525050565b6000602082019050610f7d6000830184610f59565b92915050565b6000604051905090565b600080fd5b600080fd5b600080fd5b600080fd5b6000601f19601f8301169050919050565b7f4e487b7100000000000000000000000000000000000000000000000000000000600052604160045260246000fd5b610fea82610fa1565b810181811067ffffffffffffffff8211171561100957611008610fb2565b5b80604052505050565b600061101c610f83565b90506110288282610fe1565b919050565b600067ffffffffffffffff82111561104857611047610fb2565b5b61105182610fa1565b9050602081019050919050565b82818337600083830152505050565b600061108061107b8461102d565b611012565b90508281526020810184848401111561109c5761109b610f9c565b5b6110a784828561105e565b509392505050565b600082601f8301126110c4576110c3610f97565b5b81356110d484826020860161106d565b91505092915050565b6000602082840312156110f3576110f2610f8d565b5b600082013567ffffffffffffffff81111561111157611110610f92565b5b61111d848285016110af565b91505092915050565b600073ffffffffffffffffffffffffffffffffffffffff82169050919050565b600061115182611126565b9050919050565b61116181611146565b82525050565b600060208201905061117c6000830184611158565b92915050565b61118b81611146565b811461119657600080fd5b50565b6000813590506111a881611182565b92915050565b6111b781610f4f565b81146111c257600080fd5b50565b6000813590506111d4816111ae565b92915050565b6000806000606084860312156111f3576111f2610f8d565b5b600061120186828701611199565b9350506020611212868287016111c5565b925050604084013567ffffffffffffffff81111561123357611232610f92565b5b61123f868287016110af565b9150509250925092565b60006020828403121561125f5761125e610f8d565b5b600061126d84828501611199565b91505092915050565b600081519050919050565b600081905092915050565b60005b838110156112aa57808201518184015260208101905061128f565b60008484015250505050565b60006112c182611276565b6112cb8185611281565b93506112db81856020860161128c565b80840191505092915050565b60006112f382846112b6565b915081905092915050565b600082825260208201905092915050565b7f496e76616c69642073747265616d204944000000000000000000000000000000600082015250565b60006113456011836112fe565b91506113508261130f565b602082019050919050565b6000602082019050818103600083015261137481611338565b9050919050565b7f506f737420646f6573206e6f7420657869737400000000000000000000000000600082015250565b60006113b16013836112fe565b91506113bc8261137b565b602082019050919050565b600060208201905081810360008301526113e0816113a4565b9050919050565b7f4e487b7100000000000000000000000000000000000000000000000000000000600052601160045260246000fd5b600061142182610f4f565b915061142c83610f4f565b9250828201905080821115611444576114436113e7565b5b92915050565b600061145582611276565b61145f81856112fe565b935061146f81856020860161128c565b61147881610fa1565b840191505092915050565b6000604082019050818103600083015261149d818561144a565b90506114ac6020830184610f59565b9392505050565b7f496e76616c696420757365722061646472657373000000000000000000000000600082015250565b60006114e96014836112fe565b91506114f4826114b3565b602082019050919050565b60006020820190508181036000830152611518816114dc565b9050919050565b7f416d6f756e74206d7573742062652067726561746572207468616e2030000000600082015250565b6000611555601d836112fe565b91506115608261151f565b602082019050919050565b6000602082019050818103600083015261158481611548565b9050919050565b60006040820190506115a06000830185610f59565b81810360208301526115b2818461144a565b90509392505050565b7f506f737420616c72656164792065786973747300000000000000000000000000600082015250565b60006115f16013836112fe565b91506115fc826115bb565b602082019050919050565b60006020820190508181036000830152611620816115e4565b905091905056fea2646970667358221220a5b85b3f21dd0d5c8083593104587d654623519c537c222acc618ef1cd0e72c964736f6c63430008140033",
  "linkReferences": {},
  "deployedLinkReferences": {}
}