{
  "_format": "hh-sol-artifact-1",
  "contractName": "PointsContract",
  "sourceName": "contracts/PointsContract.sol",
  "abi": [
    {
      "inputs": [
        {
          "internalType": "address",
          "name": "initialOwner",
          "type": "address"
        },
        {
          "internalType": "address",
          "name": "trustedForwarder",
          "type": "address"
        }
      ],
      "stateMutability": "nonpayable",
      "type": "constructor"
    },
    {
      "inputs": [
        {
          "internalType": "address",
          "name": "owner",
          "type": "address"
        }
      ],
      "name": "OwnableInvalidOwner",
      "type": "error"
    },
    {
      "inputs": [
        {
          "internalType": "address",
          "name": "account",
          "type": "address"
        }
      ],
      "name": "OwnableUnauthorizedAccount",
      "type": "error"
    },
    {
      "anonymous": false,
      "inputs": [
        {
          "indexed": true,
          "internalType": "address",
          "name": "user",
          "type": "address"
        },
        {
          "indexed": false,
          "internalType": "string",
          "name": "streamId",
          "type": "string"
        },
        {
          "indexed": false,
          "internalType": "uint256",
          "name": "points",
          "type": "uint256"
        }
      ],
      "name": "CommentAdded",
      "type": "event"
    },
    {
      "anonymous": false,
      "inputs": [
        {
          "indexed": true,
          "internalType": "address",
          "name": "user",
          "type": "address"
        },
        {
          "indexed": false,
          "internalType": "string",
          "name": "streamId",
          "type": "string"
        },
        {
          "indexed": false,
          "internalType": "uint256",
          "name": "points",
          "type": "uint256"
        }
      ],
      "name": "LikeAdded",
      "type": "event"
    },
    {
      "anonymous": false,
      "inputs": [
        {
          "indexed": true,
          "internalType": "address",
          "name": "previousOwner",
          "type": "address"
        },
        {
          "indexed": true,
          "internalType": "address",
          "name": "newOwner",
          "type": "address"
        }
      ],
      "name": "OwnershipTransferred",
      "type": "event"
    },
    {
      "anonymous": false,
      "inputs": [
        {
          "indexed": true,
          "internalType": "address",
          "name": "user",
          "type": "address"
        },
        {
          "indexed": false,
          "internalType": "uint256",
          "name": "amount",
          "type": "uint256"
        },
        {
          "indexed": false,
          "internalType": "string",
          "name": "reason",
          "type": "string"
        }
      ],
      "name": "PointsAdded",
      "type": "event"
    },
    {
      "anonymous": false,
      "inputs": [
        {
          "indexed": true,
          "internalType": "address",
          "name": "user",
          "type": "address"
        },
        {
          "indexed": false,
          "internalType": "string",
          "name": "streamId",
          "type": "string"
        },
        {
          "indexed": false,
          "internalType": "uint256",
          "name": "points",
          "type": "uint256"
        }
      ],
      "name": "PostCreated",
      "type": "event"
    },
    {
      "anonymous": false,
      "inputs": [
        {
          "indexed": true,
          "internalType": "address",
          "name": "user",
          "type": "address"
        },
        {
          "indexed": false,
          "internalType": "string",
          "name": "streamId",
          "type": "string"
        },
        {
          "indexed": false,
          "internalType": "uint256",
          "name": "points",
          "type": "uint256"
        }
      ],
      "name": "RepostAdded",
      "type": "event"
    },
    {
      "inputs": [],
      "name": "POINTS_PER_COMMENT",
      "outputs": [
        {
          "internalType": "uint256",
          "name": "",
          "type": "uint256"
        }
      ],
      "stateMutability": "view",
      "type": "function"
    },
    {
      "inputs": [],
      "name": "POINTS_PER_LIKE",
      "outputs": [
        {
          "internalType": "uint256",
          "name": "",
          "type": "uint256"
        }
      ],
      "stateMutability": "view",
      "type": "function"
    },
    {
      "inputs": [],
      "name": "POINTS_PER_POST",
      "outputs": [
        {
          "internalType": "uint256",
          "name": "",
          "type": "uint256"
        }
      ],
      "stateMutability": "view",
      "type": "function"
    },
    {
      "inputs": [],
      "name": "POINTS_PER_REPOST",
      "outputs": [
        {
          "internalType": "uint256",
          "name": "",
          "type": "uint256"
        }
      ],
      "stateMutability": "view",
      "type": "function"
    },
    {
      "inputs": [
        {
          "internalType": "string",
          "name": "streamId",
          "type": "string"
        }
      ],
      "name": "addComment",
      "outputs": [],
      "stateMutability": "nonpayable",
      "type": "function"
    },
    {
      "inputs": [
        {
          "internalType": "string",
          "name": "streamId",
          "type": "string"
        }
      ],
      "name": "addLike",
      "outputs": [],
      "stateMutability": "nonpayable",
      "type": "function"
    },
    {
      "inputs": [
        {
          "internalType": "address",
          "name": "user",
          "type": "address"
        },
        {
          "internalType": "uint256",
          "name": "amount",
          "type": "uint256"
        },
        {
          "internalType": "string",
          "name": "reason",
          "type": "string"
        }
      ],
      "name": "addPoints",
      "outputs": [],
      "stateMutability": "nonpayable",
      "type": "function"
    },
    {
      "inputs": [
        {
          "internalType": "string",
          "name": "streamId",
          "type": "string"
        }
      ],
      "name": "addRepost",
      "outputs": [],
      "stateMutability": "nonpayable",
      "type": "function"
    },
    {
      "inputs": [
        {
          "internalType": "string",
          "name": "streamId",
          "type": "string"
        }
      ],
      "name": "createPost",
      "outputs": [],
      "stateMutability": "nonpayable",
      "type": "function"
    },
    {
      "inputs": [
        {
          "internalType": "string",
          "name": "streamId",
          "type": "string"
        }
      ],
      "name": "getPostAuthor",
      "outputs": [
        {
          "internalType": "address",
          "name": "",
          "type": "address"
        }
      ],
      "stateMutability": "view",
      "type": "function"
    },
    {
      "inputs": [
        {
          "internalType": "string",
          "name": "streamId",
          "type": "string"
        }
      ],
      "name": "getPostPoints",
      "outputs": [
        {
          "internalType": "uint256",
          "name": "",
          "type": "uint256"
        }
      ],
      "stateMutability": "view",
      "type": "function"
    },
    {
      "inputs": [
        {
          "internalType": "address",
          "name": "user",
          "type": "address"
        }
      ],
      "name": "getUserPoints",
      "outputs": [
        {
          "internalType": "uint256",
          "name": "",
          "type": "uint256"
        }
      ],
      "stateMutability": "view",
      "type": "function"
    },
    {
      "inputs": [
        {
          "internalType": "address",
          "name": "forwarder",
          "type": "address"
        }
      ],
      "name": "isTrustedForwarder",
      "outputs": [
        {
          "internalType": "bool",
          "name": "",
          "type": "bool"
        }
      ],
      "stateMutability": "view",
      "type": "function"
    },
    {
      "inputs": [],
      "name": "owner",
      "outputs": [
        {
          "internalType": "address",
          "name": "",
          "type": "address"
        }
      ],
      "stateMutability": "view",
      "type": "function"
    },
    {
      "inputs": [],
      "name": "renounceOwnership",
      "outputs": [],
      "stateMutability": "nonpayable",
      "type": "function"
    },
    {
      "inputs": [
        {
          "internalType": "address",
          "name": "newOwner",
          "type": "address"
        }
      ],
      "name": "transferOwnership",
      "outputs": [],
      "stateMutability": "nonpayable",
      "type": "function"
    }
  ],
  "bytecode": "0x60a06040523480156200001157600080fd5b5060405162001a6938038062001a6983398181016040528101906200003791906200022b565b8082600073ffffffffffffffffffffffffffffffffffffffff168173ffffffffffffffffffffffffffffffffffffffff1603620000ae5760006040517f1e4fbdf7000000000000000000000000000000000000000000000000000000008152600401620000a5919062000283565b60405180910390fd5b620000bf81620000fd60201b60201c565b508073ffffffffffffffffffffffffffffffffffffffff1660808173ffffffffffffffffffffffffffffffffffffffff1681525050505050620002a0565b60008060009054906101000a900473ffffffffffffffffffffffffffffffffffffffff169050816000806101000a81548173ffffffffffffffffffffffffffffffffffffffff021916908373ffffffffffffffffffffffffffffffffffffffff1602179055508173ffffffffffffffffffffffffffffffffffffffff168173ffffffffffffffffffffffffffffffffffffffff167f8be0079c531659141344cd1fd0a4f28419497f9722a3daafe3b4186f6b6457e060405160405180910390a35050565b600080fd5b600073ffffffffffffffffffffffffffffffffffffffff82169050919050565b6000620001f382620001c6565b9050919050565b6200020581620001e6565b81146200021157600080fd5b50565b6000815190506200022581620001fa565b92915050565b60008060408385031215620002455762000244620001c1565b5b6000620002558582860162000214565b9250506020620002688582860162000214565b9150509250929050565b6200027d81620001e6565b82525050565b60006020820190506200029a600083018462000272565b92915050565b6080516117ad620002bc600039600061036301526117ad6000f3fe608060405234801561001057600080fd5b50600436106101005760003560e01c8063843b438611610097578063bdddcbf311610066578063bdddcbf31461029b578063c7303c61146102b7578063d95b316a146102d3578063f2fde38b146102f157610100565b8063843b4386146102135780638da5cb5b1461022f578063aeefe31f1461024d578063ba1b25ab1461027d57610100565b80635c88e93e116100d35780635c88e93e146101a157806361b65f30146101bd5780636672d423146101d9578063715018a61461020957610100565b8063318298be1461010557806333e74e2a146101235780635234a65c14610141578063572b6c0514610171575b600080fd5b61010d61030d565b60405161011a9190611082565b60405180910390f35b61012b610312565b6040516101389190611082565b60405180910390f35b61015b600480360381019061015691906111f7565b610317565b6040516101689190611281565b60405180910390f35b61018b600480360381019061018691906112c8565b61035f565b6040516101989190611310565b60405180910390f35b6101bb60048036038101906101b691906111f7565b6103b7565b005b6101d760048036038101906101d29190611357565b610564565b005b6101f360048036038101906101ee91906111f7565b6106cc565b6040516102009190611082565b60405180910390f35b6102116107e6565b005b61022d600480360381019061022891906111f7565b6107fa565b005b6102376109a7565b6040516102449190611281565b60405180910390f35b610267600480360381019061026291906112c8565b6109d0565b6040516102749190611082565b60405180910390f35b610285610a1c565b6040516102929190611082565b60405180910390f35b6102b560048036038101906102b091906111f7565b610a21565b005b6102d160048036038101906102cc91906111f7565b610bce565b005b6102db610e4a565b6040516102e89190611082565b60405180910390f35b61030b600480360381019061030691906112c8565b610e4f565b005b600281565b600a81565b60006002826040516103299190611437565b908152602001604051809103902060009054906101000a900473ffffffffffffffffffffffffffffffffffffffff169050919050565b60007f000000000000000000000000000000000000000000000000000000000000000073ffffffffffffffffffffffffffffffffffffffff168273ffffffffffffffffffffffffffffffffffffffff16149050919050565b60008151116103fb576040517f08c379a00000000000000000000000000000000000000000000000000000000081526004016103f2906114ab565b60405180910390fd5b600073ffffffffffffffffffffffffffffffffffffffff166002826040516104239190611437565b908152602001604051809103902060009054906101000a900473ffffffffffffffffffffffffffffffffffffffff1673ffffffffffffffffffffffffffffffffffffffff16036104a8576040517f08c379a000000000000000000000000000000000000000000000000000000000815260040161049f90611517565b60405180910390fd5b6002600160006104b6610ed5565b73ffffffffffffffffffffffffffffffffffffffff1673ffffffffffffffffffffffffffffffffffffffff16815260200190815260200160002060000160008282546105029190611566565b92505081905550610511610ed5565b73ffffffffffffffffffffffffffffffffffffffff167f3edf2cfb29f2efa815bfa9e6cc27e5c51b7c02ec53bc3cabca94833db7b293fb8260026040516105599291906115d3565b60405180910390a250565b61056c610ee4565b600073ffffffffffffffffffffffffffffffffffffffff168373ffffffffffffffffffffffffffffffffffffffff16036105db576040517f08c379a00000000000000000000000000000000000000000000000000000000081526004016105d29061164f565b60405180910390fd5b6000821161061e576040517f08c379a0000000000000000000000000000000000000000000000000000000008152600401610615906116bb565b60405180910390fd5b81600160008573ffffffffffffffffffffffffffffffffffffffff1673ffffffffffffffffffffffffffffffffffffffff16815260200190815260200160002060000160008282546106709190611566565b925050819055508273ffffffffffffffffffffffffffffffffffffffff167f53370cf37058fbb70f95a5950efa0ff8304d84707adab9046a6bf98aba15cb0b83836040516106bf9291906116db565b60405180910390a2505050565b6000806002836040516106df9190611437565b908152602001604051809103902060009054906101000a900473ffffffffffffffffffffffffffffffffffffffff169050600073ffffffffffffffffffffffffffffffffffffffff168173ffffffffffffffffffffffffffffffffffffffff160361077f576040517f08c379a000000000000000000000000000000000000000000000000000000000815260040161077690611517565b60405180910390fd5b600160008273ffffffffffffffffffffffffffffffffffffffff1673ffffffffffffffffffffffffffffffffffffffff168152602001908152602001600020600101836040516107cf9190611437565b908152602001604051809103902054915050919050565b6107ee610ee4565b6107f86000610f6b565b565b600081511161083e576040517f08c379a0000000000000000000000000000000000000000000000000000000008152600401610835906114ab565b60405180910390fd5b600073ffffffffffffffffffffffffffffffffffffffff166002826040516108669190611437565b908152602001604051809103902060009054906101000a900473ffffffffffffffffffffffffffffffffffffffff1673ffffffffffffffffffffffffffffffffffffffff16036108eb576040517f08c379a00000000000000000000000000000000000000000000000000000000081526004016108e290611517565b60405180910390fd5b6005600160006108f9610ed5565b73ffffffffffffffffffffffffffffffffffffffff1673ffffffffffffffffffffffffffffffffffffffff16815260200190815260200160002060000160008282546109459190611566565b92505081905550610954610ed5565b73ffffffffffffffffffffffffffffffffffffffff167f14c944879be2937b6600ea700d977dab107e3321e3ea593177590ccf12700cf482600560405161099c9291906115d3565b60405180910390a250565b60008060009054906101000a900473ffffffffffffffffffffffffffffffffffffffff16905090565b6000600160008373ffffffffffffffffffffffffffffffffffffffff1673ffffffffffffffffffffffffffffffffffffffff168152602001908152602001600020600001549050919050565b600381565b6000815111610a65576040517f08c379a0000000000000000000000000000000000000000000000000000000008152600401610a5c906114ab565b60405180910390fd5b600073ffffffffffffffffffffffffffffffffffffffff16600282604051610a8d9190611437565b908152602001604051809103902060009054906101000a900473ffffffffffffffffffffffffffffffffffffffff1673ffffffffffffffffffffffffffffffffffffffff1603610b12576040517f08c379a0000000000000000000000000000000000000000000000000000000008152600401610b0990611517565b60405180910390fd5b600360016000610b20610ed5565b73ffffffffffffffffffffffffffffffffffffffff1673ffffffffffffffffffffffffffffffffffffffff1681526020019081526020016000206000016000828254610b6c9190611566565b92505081905550610b7b610ed5565b73ffffffffffffffffffffffffffffffffffffffff167f16159330b564e80dfbef4eefb5aab51a5125fa530a4dd8b2b3e303bed873db82826003604051610bc39291906115d3565b60405180910390a250565b6000815111610c12576040517f08c379a0000000000000000000000000000000000000000000000000000000008152600401610c09906114ab565b60405180910390fd5b600073ffffffffffffffffffffffffffffffffffffffff16600282604051610c3a9190611437565b908152602001604051809103902060009054906101000a900473ffffffffffffffffffffffffffffffffffffffff1673ffffffffffffffffffffffffffffffffffffffff1614610cbf576040517f08c379a0000000000000000000000000000000000000000000000000000000008152600401610cb690611757565b60405180910390fd5b610cc7610ed5565b600282604051610cd79190611437565b908152602001604051809103902060006101000a81548173ffffffffffffffffffffffffffffffffffffffff021916908373ffffffffffffffffffffffffffffffffffffffff160217905550600a60016000610d31610ed5565b73ffffffffffffffffffffffffffffffffffffffff1673ffffffffffffffffffffffffffffffffffffffff16815260200190815260200160002060010182604051610d7c9190611437565b908152602001604051809103902081905550600a60016000610d9c610ed5565b73ffffffffffffffffffffffffffffffffffffffff1673ffffffffffffffffffffffffffffffffffffffff1681526020019081526020016000206000016000828254610de89190611566565b92505081905550610df7610ed5565b73ffffffffffffffffffffffffffffffffffffffff167fb5a2d6ecdc9bd09637c1de2e8e02011abe041770e16737ec2adfa54c8e0581c782600a604051610e3f9291906115d3565b60405180910390a250565b600581565b610e57610ee4565b600073ffffffffffffffffffffffffffffffffffffffff168173ffffffffffffffffffffffffffffffffffffffff1603610ec95760006040517f1e4fbdf7000000000000000000000000000000000000000000000000000000008152600401610ec09190611281565b60405180910390fd5b610ed281610f6b565b50565b6000610edf61102f565b905090565b610eec610ed5565b73ffffffffffffffffffffffffffffffffffffffff16610f0a6109a7565b73ffffffffffffffffffffffffffffffffffffffff1614610f6957610f2d610ed5565b6040517f118cdaa7000000000000000000000000000000000000000000000000000000008152600401610f609190611281565b60405180910390fd5b565b60008060009054906101000a900473ffffffffffffffffffffffffffffffffffffffff169050816000806101000a81548173ffffffffffffffffffffffffffffffffffffffff021916908373ffffffffffffffffffffffffffffffffffffffff1602179055508173ffffffffffffffffffffffffffffffffffffffff168173ffffffffffffffffffffffffffffffffffffffff167f8be0079c531659141344cd1fd0a4f28419497f9722a3daafe3b4186f6b6457e060405160405180910390a35050565b600061103a3361035f565b1561104e57601436033560601c905061105d565b611056611061565b905061105e565b5b90565b600033905090565b6000819050919050565b61107c81611069565b82525050565b60006020820190506110976000830184611073565b92915050565b6000604051905090565b600080fd5b600080fd5b600080fd5b600080fd5b6000601f19601f8301169050919050565b7f4e487b7100000000000000000000000000000000000000000000000000000000600052604160045260246000fd5b611104826110bb565b810181811067ffffffffffffffff82111715611123576111226110cc565b5b80604052505050565b600061113661109d565b905061114282826110fb565b919050565b600067ffffffffffffffff821115611162576111616110cc565b5b61116b826110bb565b9050602081019050919050565b82818337600083830152505050565b600061119a61119584611147565b61112c565b9050828152602081018484840111156111b6576111b56110b6565b5b6111c1848285611178565b509392505050565b600082601f8301126111de576111dd6110b1565b5b81356111ee848260208601611187565b91505092915050565b60006020828403121561120d5761120c6110a7565b5b600082013567ffffffffffffffff81111561122b5761122a6110ac565b5b611237848285016111c9565b91505092915050565b600073ffffffffffffffffffffffffffffffffffffffff82169050919050565b600061126b82611240565b9050919050565b61127b81611260565b82525050565b60006020820190506112966000830184611272565b92915050565b6112a581611260565b81146112b057600080fd5b50565b6000813590506112c28161129c565b92915050565b6000602082840312156112de576112dd6110a7565b5b60006112ec848285016112b3565b91505092915050565b60008115159050919050565b61130a816112f5565b82525050565b60006020820190506113256000830184611301565b92915050565b61133481611069565b811461133f57600080fd5b50565b6000813590506113518161132b565b92915050565b6000806000606084860312156113705761136f6110a7565b5b600061137e868287016112b3565b935050602061138f86828701611342565b925050604084013567ffffffffffffffff8111156113b0576113af6110ac565b5b6113bc868287016111c9565b9150509250925092565b600081519050919050565b600081905092915050565b60005b838110156113fa5780820151818401526020810190506113df565b60008484015250505050565b6000611411826113c6565b61141b81856113d1565b935061142b8185602086016113dc565b80840191505092915050565b60006114438284611406565b915081905092915050565b600082825260208201905092915050565b7f496e76616c69642073747265616d204944000000000000000000000000000000600082015250565b600061149560118361144e565b91506114a08261145f565b602082019050919050565b600060208201905081810360008301526114c481611488565b9050919050565b7f506f737420646f6573206e6f7420657869737400000000000000000000000000600082015250565b600061150160138361144e565b915061150c826114cb565b602082019050919050565b60006020820190508181036000830152611530816114f4565b9050919050565b7f4e487b7100000000000000000000000000000000000000000000000000000000600052601160045260246000fd5b600061157182611069565b915061157c83611069565b925082820190508082111561159457611593611537565b5b92915050565b60006115a5826113c6565b6115af818561144e565b93506115bf8185602086016113dc565b6115c8816110bb565b840191505092915050565b600060408201905081810360008301526115ed818561159a565b90506115fc6020830184611073565b9392505050565b7f496e76616c696420757365722061646472657373000000000000000000000000600082015250565b600061163960148361144e565b915061164482611603565b602082019050919050565b600060208201905081810360008301526116688161162c565b9050919050565b7f416d6f756e74206d7573742062652067726561746572207468616e2030000000600082015250565b60006116a5601d8361144e565b91506116b08261166f565b602082019050919050565b600060208201905081810360008301526116d481611698565b9050919050565b60006040820190506116f06000830185611073565b8181036020830152611702818461159a565b90509392505050565b7f506f737420616c72656164792065786973747300000000000000000000000000600082015250565b600061174160138361144e565b915061174c8261170b565b602082019050919050565b6000602082019050818103600083015261177081611734565b905091905056fea2646970667358221220d88922797eb547448300e8f2078bb17c5c9f803ec1247fcbc5f3b354e323720f64736f6c63430008140033",
  "linkReferences": {},
  "deployedLinkReferences": {}
}