{
  "_format": "hh-sol-artifact-1",
  "contractName": "DonationContract",
  "sourceName": "contracts/DonationContract.sol",
  "abi": [
    {
      "inputs": [
        {
          "internalType": "address",
          "name": "initialOwner",
          "type": "address"
        }
      ],
      "stateMutability": "nonpayable",
      "type": "constructor"
    },
    {
      "inputs": [
        {
          "internalType": "address",
          "name": "owner",
          "type": "address"
        }
      ],
      "name": "OwnableInvalidOwner",
      "type": "error"
    },
    {
      "inputs": [
        {
          "internalType": "address",
          "name": "account",
          "type": "address"
        }
      ],
      "name": "OwnableUnauthorizedAccount",
      "type": "error"
    },
    {
      "inputs": [],
      "name": "ReentrancyGuardReentrantCall",
      "type": "error"
    },
    {
      "anonymous": false,
      "inputs": [
        {
          "indexed": true,
          "internalType": "string",
          "name": "streamId",
          "type": "string"
        },
        {
          "indexed": true,
          "internalType": "address",
          "name": "donor",
          "type": "address"
        },
        {
          "indexed": true,
          "internalType": "address",
          "name": "token",
          "type": "address"
        },
        {
          "indexed": false,
          "internalType": "uint256",
          "name": "amount",
          "type": "uint256"
        },
        {
          "indexed": false,
          "internalType": "uint256",
          "name": "timestamp",
          "type": "uint256"
        }
      ],
      "name": "DonationReceived",
      "type": "event"
    },
    {
      "anonymous": false,
      "inputs": [
        {
          "indexed": true,
          "internalType": "address",
          "name": "user",
          "type": "address"
        },
        {
          "indexed": true,
          "internalType": "address",
          "name": "token",
          "type": "address"
        },
        {
          "indexed": false,
          "internalType": "uint256",
          "name": "amount",
          "type": "uint256"
        }
      ],
      "name": "DonationWithdrawn",
      "type": "event"
    },
    {
      "anonymous": false,
      "inputs": [
        {
          "indexed": true,
          "internalType": "address",
          "name": "previousOwner",
          "type": "address"
        },
        {
          "indexed": true,
          "internalType": "address",
          "name": "newOwner",
          "type": "address"
        }
      ],
      "name": "OwnershipTransferred",
      "type": "event"
    },
    {
      "inputs": [
        {
          "internalType": "string",
          "name": "streamId",
          "type": "string"
        }
      ],
      "name": "donateETH",
      "outputs": [],
      "stateMutability": "payable",
      "type": "function"
    },
    {
      "inputs": [
        {
          "internalType": "string",
          "name": "streamId",
          "type": "string"
        },
        {
          "internalType": "address",
          "name": "token",
          "type": "address"
        },
        {
          "internalType": "uint256",
          "name": "amount",
          "type": "uint256"
        }
      ],
      "name": "donateToken",
      "outputs": [],
      "stateMutability": "nonpayable",
      "type": "function"
    },
    {
      "inputs": [
        {
          "internalType": "string",
          "name": "streamId",
          "type": "string"
        }
      ],
      "name": "getDonationsByPost",
      "outputs": [
        {
          "components": [
            {
              "internalType": "address",
              "name": "donor",
              "type": "address"
            },
            {
              "internalType": "address",
              "name": "token",
              "type": "address"
            },
            {
              "internalType": "uint256",
              "name": "amount",
              "type": "uint256"
            },
            {
              "internalType": "uint256",
              "name": "timestamp",
              "type": "uint256"
            }
          ],
          "internalType": "struct DonationContract.Donation[]",
          "name": "",
          "type": "tuple[]"
        }
      ],
      "stateMutability": "view",
      "type": "function"
    },
    {
      "inputs": [
        {
          "internalType": "string",
          "name": "streamId",
          "type": "string"
        }
      ],
      "name": "getPostAuthor",
      "outputs": [
        {
          "internalType": "address",
          "name": "",
          "type": "address"
        }
      ],
      "stateMutability": "view",
      "type": "function"
    },
    {
      "inputs": [
        {
          "internalType": "address",
          "name": "user",
          "type": "address"
        }
      ],
      "name": "getUserETHBalance",
      "outputs": [
        {
          "internalType": "uint256",
          "name": "",
          "type": "uint256"
        }
      ],
      "stateMutability": "view",
      "type": "function"
    },
    {
      "inputs": [
        {
          "internalType": "address",
          "name": "user",
          "type": "address"
        },
        {
          "internalType": "address",
          "name": "token",
          "type": "address"
        }
      ],
      "name": "getUserTokenBalance",
      "outputs": [
        {
          "internalType": "uint256",
          "name": "",
          "type": "uint256"
        }
      ],
      "stateMutability": "view",
      "type": "function"
    },
    {
      "inputs": [],
      "name": "owner",
      "outputs": [
        {
          "internalType": "address",
          "name": "",
          "type": "address"
        }
      ],
      "stateMutability": "view",
      "type": "function"
    },
    {
      "inputs": [],
      "name": "renounceOwnership",
      "outputs": [],
      "stateMutability": "nonpayable",
      "type": "function"
    },
    {
      "inputs": [
        {
          "internalType": "address",
          "name": "newOwner",
          "type": "address"
        }
      ],
      "name": "transferOwnership",
      "outputs": [],
      "stateMutability": "nonpayable",
      "type": "function"
    },
    {
      "inputs": [],
      "name": "withdrawETH",
      "outputs": [],
      "stateMutability": "nonpayable",
      "type": "function"
    },
    {
      "inputs": [
        {
          "internalType": "address",
          "name": "token",
          "type": "address"
        }
      ],
      "name": "withdrawToken",
      "outputs": [],
      "stateMutability": "nonpayable",
      "type": "function"
    },
    {
      "stateMutability": "payable",
      "type": "receive"
    }
  ],
  "bytecode": "0x60806040523480156200001157600080fd5b5060405162002172380380620021728339818101604052810190620000379190620001fb565b80600073ffffffffffffffffffffffffffffffffffffffff168173ffffffffffffffffffffffffffffffffffffffff1603620000ad5760006040517f1e4fbdf7000000000000000000000000000000000000000000000000000000008152600401620000a491906200023e565b60405180910390fd5b620000be81620000cd60201b60201c565b5060018081905550506200025b565b60008060009054906101000a900473ffffffffffffffffffffffffffffffffffffffff169050816000806101000a81548173ffffffffffffffffffffffffffffffffffffffff021916908373ffffffffffffffffffffffffffffffffffffffff1602179055508173ffffffffffffffffffffffffffffffffffffffff168173ffffffffffffffffffffffffffffffffffffffff167f8be0079c531659141344cd1fd0a4f28419497f9722a3daafe3b4186f6b6457e060405160405180910390a35050565b600080fd5b600073ffffffffffffffffffffffffffffffffffffffff82169050919050565b6000620001c38262000196565b9050919050565b620001d581620001b6565b8114620001e157600080fd5b50565b600081519050620001f581620001ca565b92915050565b60006020828403121562000214576200021362000191565b5b60006200022484828501620001e4565b91505092915050565b6200023881620001b6565b82525050565b60006020820190506200025560008301846200022d565b92915050565b611f07806200026b6000396000f3fe6080604052600436106100a05760003560e01c8063894760691161006457806389476069146101b75780638da5cb5b146101e05780638ed169631461020b578063c526277014610227578063e086e5ec14610250578063f2fde38b14610267576100a7565b8063089f32d7146100ac578063464beb06146100e95780635234a65c14610126578063715018a61461016357806373f8fd4b1461017a576100a7565b366100a757005b600080fd5b3480156100b857600080fd5b506100d360048036038101906100ce91906115f0565b610290565b6040516100e09190611797565b60405180910390f35b3480156100f557600080fd5b50610110600480360381019061010b91906117e5565b6103cd565b60405161011d9190611821565b60405180910390f35b34801561013257600080fd5b5061014d600480360381019061014891906115f0565b610419565b60405161015a919061184b565b60405180910390f35b34801561016f57600080fd5b50610178610461565b005b34801561018657600080fd5b506101a1600480360381019061019c9190611866565b610475565b6040516101ae9190611821565b60405180910390f35b3480156101c357600080fd5b506101de60048036038101906101d991906117e5565b6104ff565b005b3480156101ec57600080fd5b506101f56107f6565b604051610202919061184b565b60405180910390f35b610225600480360381019061022091906115f0565b61081f565b005b34801561023357600080fd5b5061024e600480360381019061024991906118d2565b610b92565b005b34801561025c57600080fd5b50610265611076565b005b34801561027357600080fd5b5061028e600480360381019061028991906117e5565b61126e565b005b60606002826040516102a291906119b2565b9081526020016040518091039020805480602002602001604051908101604052809291908181526020016000905b828210156103c257838290600052602060002090600402016040518060800160405290816000820160009054906101000a900473ffffffffffffffffffffffffffffffffffffffff1673ffffffffffffffffffffffffffffffffffffffff1673ffffffffffffffffffffffffffffffffffffffff1681526020016001820160009054906101000a900473ffffffffffffffffffffffffffffffffffffffff1673ffffffffffffffffffffffffffffffffffffffff1673ffffffffffffffffffffffffffffffffffffffff16815260200160028201548152602001600382015481525050815260200190600101906102d0565b505050509050919050565b6000600360008373ffffffffffffffffffffffffffffffffffffffff1673ffffffffffffffffffffffffffffffffffffffff168152602001908152602001600020600001549050919050565b600060048260405161042b91906119b2565b908152602001604051809103902060009054906101000a900473ffffffffffffffffffffffffffffffffffffffff169050919050565b6104696112f4565b610473600061137b565b565b6000600360008473ffffffffffffffffffffffffffffffffffffffff1673ffffffffffffffffffffffffffffffffffffffff16815260200190815260200160002060010160008373ffffffffffffffffffffffffffffffffffffffff1673ffffffffffffffffffffffffffffffffffffffff16815260200190815260200160002054905092915050565b61050761143f565b600073ffffffffffffffffffffffffffffffffffffffff168173ffffffffffffffffffffffffffffffffffffffff1603610576576040517f08c379a000000000000000000000000000000000000000000000000000000000815260040161056d90611a26565b60405180910390fd5b6000600360003373ffffffffffffffffffffffffffffffffffffffff1673ffffffffffffffffffffffffffffffffffffffff16815260200190815260200160002060010160008373ffffffffffffffffffffffffffffffffffffffff1673ffffffffffffffffffffffffffffffffffffffff1681526020019081526020016000205490506000811161063d576040517f08c379a000000000000000000000000000000000000000000000000000000000815260040161063490611a92565b60405180910390fd5b6000600360003373ffffffffffffffffffffffffffffffffffffffff1673ffffffffffffffffffffffffffffffffffffffff16815260200190815260200160002060010160008473ffffffffffffffffffffffffffffffffffffffff1673ffffffffffffffffffffffffffffffffffffffff1681526020019081526020016000208190555060008290508073ffffffffffffffffffffffffffffffffffffffff1663a9059cbb33846040518363ffffffff1660e01b8152600401610702929190611ab2565b6020604051808303816000875af1158015610721573d6000803e3d6000fd5b505050506040513d601f19601f820116820180604052508101906107459190611b13565b610784576040517f08c379a000000000000000000000000000000000000000000000000000000000815260040161077b90611b8c565b60405180910390fd5b8273ffffffffffffffffffffffffffffffffffffffff163373ffffffffffffffffffffffffffffffffffffffff167fe3e1bb45702d421c77dbd83c3b9336df12afc7514af1960cadb24210b5fb3162846040516107e19190611821565b60405180910390a350506107f3611485565b50565b60008060009054906101000a900473ffffffffffffffffffffffffffffffffffffffff16905090565b60003411610862576040517f08c379a000000000000000000000000000000000000000000000000000000000815260040161085990611bf8565b60405180910390fd5b60008151116108a6576040517f08c379a000000000000000000000000000000000000000000000000000000000815260040161089d90611c64565b60405180910390fd5b60006004826040516108b891906119b2565b908152602001604051809103902060009054906101000a900473ffffffffffffffffffffffffffffffffffffffff169050600073ffffffffffffffffffffffffffffffffffffffff168173ffffffffffffffffffffffffffffffffffffffff160361097e573390508060048360405161093191906119b2565b908152602001604051809103902060006101000a81548173ffffffffffffffffffffffffffffffffffffffff021916908373ffffffffffffffffffffffffffffffffffffffff1602179055505b60028260405161098e91906119b2565b908152602001604051809103902060405180608001604052803373ffffffffffffffffffffffffffffffffffffffff168152602001600073ffffffffffffffffffffffffffffffffffffffff16815260200134815260200142815250908060018154018082558091505060019003906000526020600020906004020160009091909190915060008201518160000160006101000a81548173ffffffffffffffffffffffffffffffffffffffff021916908373ffffffffffffffffffffffffffffffffffffffff16021790555060208201518160010160006101000a81548173ffffffffffffffffffffffffffffffffffffffff021916908373ffffffffffffffffffffffffffffffffffffffff1602179055506040820151816002015560608201518160030155505034600360008373ffffffffffffffffffffffffffffffffffffffff1673ffffffffffffffffffffffffffffffffffffffff1681526020019081526020016000206000016000828254610b099190611cb3565b92505081905550600073ffffffffffffffffffffffffffffffffffffffff163373ffffffffffffffffffffffffffffffffffffffff1683604051610b4d91906119b2565b60405180910390207f41975d99c1062433efae53772c4429124a0f5949af7e5da1557a5826b4a575713442604051610b86929190611ce7565b60405180910390a45050565b600073ffffffffffffffffffffffffffffffffffffffff168273ffffffffffffffffffffffffffffffffffffffff1603610c01576040517f08c379a0000000000000000000000000000000000000000000000000000000008152600401610bf890611a26565b60405180910390fd5b60008111610c44576040517f08c379a0000000000000000000000000000000000000000000000000000000008152600401610c3b90611d5c565b60405180910390fd5b6000835111610c88576040517f08c379a0000000000000000000000000000000000000000000000000000000008152600401610c7f90611c64565b60405180910390fd5b60008290508073ffffffffffffffffffffffffffffffffffffffff166323b872dd3330856040518463ffffffff1660e01b8152600401610cca93929190611d7c565b6020604051808303816000875af1158015610ce9573d6000803e3d6000fd5b505050506040513d601f19601f82011682018060405250810190610d0d9190611b13565b610d4c576040517f08c379a0000000000000000000000000000000000000000000000000000000008152600401610d4390611b8c565b60405180910390fd5b6000600485604051610d5e91906119b2565b908152602001604051809103902060009054906101000a900473ffffffffffffffffffffffffffffffffffffffff169050600073ffffffffffffffffffffffffffffffffffffffff168173ffffffffffffffffffffffffffffffffffffffff1603610e245733905080600486604051610dd791906119b2565b908152602001604051809103902060006101000a81548173ffffffffffffffffffffffffffffffffffffffff021916908373ffffffffffffffffffffffffffffffffffffffff1602179055505b600285604051610e3491906119b2565b908152602001604051809103902060405180608001604052803373ffffffffffffffffffffffffffffffffffffffff1681526020018673ffffffffffffffffffffffffffffffffffffffff16815260200185815260200142815250908060018154018082558091505060019003906000526020600020906004020160009091909190915060008201518160000160006101000a81548173ffffffffffffffffffffffffffffffffffffffff021916908373ffffffffffffffffffffffffffffffffffffffff16021790555060208201518160010160006101000a81548173ffffffffffffffffffffffffffffffffffffffff021916908373ffffffffffffffffffffffffffffffffffffffff1602179055506040820151816002015560608201518160030155505082600360008373ffffffffffffffffffffffffffffffffffffffff1673ffffffffffffffffffffffffffffffffffffffff16815260200190815260200160002060010160008673ffffffffffffffffffffffffffffffffffffffff1673ffffffffffffffffffffffffffffffffffffffff1681526020019081526020016000206000828254610feb9190611cb3565b925050819055508373ffffffffffffffffffffffffffffffffffffffff163373ffffffffffffffffffffffffffffffffffffffff168660405161102e91906119b2565b60405180910390207f41975d99c1062433efae53772c4429124a0f5949af7e5da1557a5826b4a575718642604051611067929190611ce7565b60405180910390a45050505050565b61107e61143f565b6000600360003373ffffffffffffffffffffffffffffffffffffffff1673ffffffffffffffffffffffffffffffffffffffff16815260200190815260200160002060000154905060008111611108576040517f08c379a00000000000000000000000000000000000000000000000000000000081526004016110ff90611dff565b60405180910390fd5b6000600360003373ffffffffffffffffffffffffffffffffffffffff1673ffffffffffffffffffffffffffffffffffffffff1681526020019081526020016000206000018190555060003373ffffffffffffffffffffffffffffffffffffffff168260405161117690611e50565b60006040518083038185875af1925050503d80600081146111b3576040519150601f19603f3d011682016040523d82523d6000602084013e6111b8565b606091505b50509050806111fc576040517f08c379a00000000000000000000000000000000000000000000000000000000081526004016111f390611eb1565b60405180910390fd5b600073ffffffffffffffffffffffffffffffffffffffff163373ffffffffffffffffffffffffffffffffffffffff167fe3e1bb45702d421c77dbd83c3b9336df12afc7514af1960cadb24210b5fb31628460405161125a9190611821565b60405180910390a3505061126c611485565b565b6112766112f4565b600073ffffffffffffffffffffffffffffffffffffffff168173ffffffffffffffffffffffffffffffffffffffff16036112e85760006040517f1e4fbdf70000000000000000000000000000000000000000000000000000000081526004016112df919061184b565b60405180910390fd5b6112f18161137b565b50565b6112fc61148e565b73ffffffffffffffffffffffffffffffffffffffff1661131a6107f6565b73ffffffffffffffffffffffffffffffffffffffff16146113795761133d61148e565b6040517f118cdaa7000000000000000000000000000000000000000000000000000000008152600401611370919061184b565b60405180910390fd5b565b60008060009054906101000a900473ffffffffffffffffffffffffffffffffffffffff169050816000806101000a81548173ffffffffffffffffffffffffffffffffffffffff021916908373ffffffffffffffffffffffffffffffffffffffff1602179055508173ffffffffffffffffffffffffffffffffffffffff168173ffffffffffffffffffffffffffffffffffffffff167f8be0079c531659141344cd1fd0a4f28419497f9722a3daafe3b4186f6b6457e060405160405180910390a35050565b60026001540361147b576040517f3ee5aeb500000000000000000000000000000000000000000000000000000000815260040160405180910390fd5b6002600181905550565b60018081905550565b600033905090565b6000604051905090565b600080fd5b600080fd5b600080fd5b600080fd5b6000601f19601f8301169050919050565b7f4e487b7100000000000000000000000000000000000000000000000000000000600052604160045260246000fd5b6114fd826114b4565b810181811067ffffffffffffffff8211171561151c5761151b6114c5565b5b80604052505050565b600061152f611496565b905061153b82826114f4565b919050565b600067ffffffffffffffff82111561155b5761155a6114c5565b5b611564826114b4565b9050602081019050919050565b82818337600083830152505050565b600061159361158e84611540565b611525565b9050828152602081018484840111156115af576115ae6114af565b5b6115ba848285611571565b509392505050565b600082601f8301126115d7576115d66114aa565b5b81356115e7848260208601611580565b91505092915050565b600060208284031215611606576116056114a0565b5b600082013567ffffffffffffffff811115611624576116236114a5565b5b611630848285016115c2565b91505092915050565b600081519050919050565b600082825260208201905092915050565b6000819050602082019050919050565b600073ffffffffffffffffffffffffffffffffffffffff82169050919050565b600061169082611665565b9050919050565b6116a081611685565b82525050565b6000819050919050565b6116b9816116a6565b82525050565b6080820160008201516116d56000850182611697565b5060208201516116e86020850182611697565b5060408201516116fb60408501826116b0565b50606082015161170e60608501826116b0565b50505050565b600061172083836116bf565b60808301905092915050565b6000602082019050919050565b600061174482611639565b61174e8185611644565b935061175983611655565b8060005b8381101561178a5781516117718882611714565b975061177c8361172c565b92505060018101905061175d565b5085935050505092915050565b600060208201905081810360008301526117b18184611739565b905092915050565b6117c281611685565b81146117cd57600080fd5b50565b6000813590506117df816117b9565b92915050565b6000602082840312156117fb576117fa6114a0565b5b6000611809848285016117d0565b91505092915050565b61181b816116a6565b82525050565b60006020820190506118366000830184611812565b92915050565b61184581611685565b82525050565b6000602082019050611860600083018461183c565b92915050565b6000806040838503121561187d5761187c6114a0565b5b600061188b858286016117d0565b925050602061189c858286016117d0565b9150509250929050565b6118af816116a6565b81146118ba57600080fd5b50565b6000813590506118cc816118a6565b92915050565b6000806000606084860312156118eb576118ea6114a0565b5b600084013567ffffffffffffffff811115611909576119086114a5565b5b611915868287016115c2565b9350506020611926868287016117d0565b9250506040611937868287016118bd565b9150509250925092565b600081519050919050565b600081905092915050565b60005b8381101561197557808201518184015260208101905061195a565b60008484015250505050565b600061198c82611941565b611996818561194c565b93506119a6818560208601611957565b80840191505092915050565b60006119be8284611981565b915081905092915050565b600082825260208201905092915050565b7f496e76616c696420746f6b656e20616464726573730000000000000000000000600082015250565b6000611a106015836119c9565b9150611a1b826119da565b602082019050919050565b60006020820190508181036000830152611a3f81611a03565b9050919050565b7f4e6f20746f6b656e7320746f2077697468647261770000000000000000000000600082015250565b6000611a7c6015836119c9565b9150611a8782611a46565b602082019050919050565b60006020820190508181036000830152611aab81611a6f565b9050919050565b6000604082019050611ac7600083018561183c565b611ad46020830184611812565b9392505050565b60008115159050919050565b611af081611adb565b8114611afb57600080fd5b50565b600081519050611b0d81611ae7565b92915050565b600060208284031215611b2957611b286114a0565b5b6000611b3784828501611afe565b91505092915050565b7f5472616e73666572206661696c65640000000000000000000000000000000000600082015250565b6000611b76600f836119c9565b9150611b8182611b40565b602082019050919050565b60006020820190508181036000830152611ba581611b69565b9050919050565b7f4d7573742073656e642045544800000000000000000000000000000000000000600082015250565b6000611be2600d836119c9565b9150611bed82611bac565b602082019050919050565b60006020820190508181036000830152611c1181611bd5565b9050919050565b7f496e76616c69642073747265616d204944000000000000000000000000000000600082015250565b6000611c4e6011836119c9565b9150611c5982611c18565b602082019050919050565b60006020820190508181036000830152611c7d81611c41565b9050919050565b7f4e487b7100000000000000000000000000000000000000000000000000000000600052601160045260246000fd5b6000611cbe826116a6565b9150611cc9836116a6565b9250828201905080821115611ce157611ce0611c84565b5b92915050565b6000604082019050611cfc6000830185611812565b611d096020830184611812565b9392505050565b7f416d6f756e74206d7573742062652067726561746572207468616e2030000000600082015250565b6000611d46601d836119c9565b9150611d5182611d10565b602082019050919050565b60006020820190508181036000830152611d7581611d39565b9050919050565b6000606082019050611d91600083018661183c565b611d9e602083018561183c565b611dab6040830184611812565b949350505050565b7f4e6f2045544820746f2077697468647261770000000000000000000000000000600082015250565b6000611de96012836119c9565b9150611df482611db3565b602082019050919050565b60006020820190508181036000830152611e1881611ddc565b9050919050565b600081905092915050565b50565b6000611e3a600083611e1f565b9150611e4582611e2a565b600082019050919050565b6000611e5b82611e2d565b9150819050919050565b7f455448207472616e73666572206661696c656400000000000000000000000000600082015250565b6000611e9b6013836119c9565b9150611ea682611e65565b602082019050919050565b60006020820190508181036000830152611eca81611e8e565b905091905056fea2646970667358221220a8258d59a7c65096dc962bfe28b9d850bdbfc3d1c1495df5474685c3d0172a4764736f6c63430008140033",
  "linkReferences": {},
  "deployedLinkReferences": {}
}