{
  "_format": "hh-sol-artifact-1",
  "contractName": "MinimalForwarder",
  "sourceName": "contracts/MinimalForwarder.sol",
  "abi": [
    {
      "inputs": [],
      "stateMutability": "nonpayable",
      "type": "constructor"
    },
    {
      "inputs": [],
      "name": "ECDSAInvalidSignature",
      "type": "error"
    },
    {
      "inputs": [
        {
          "internalType": "uint256",
          "name": "length",
          "type": "uint256"
        }
      ],
      "name": "ECDSAInvalidSignatureLength",
      "type": "error"
    },
    {
      "inputs": [
        {
          "internalType": "bytes32",
          "name": "s",
          "type": "bytes32"
        }
      ],
      "name": "ECDSAInvalidSignatureS",
      "type": "error"
    },
    {
      "inputs": [],
      "name": "InvalidShortString",
      "type": "error"
    },
    {
      "inputs": [
        {
          "internalType": "string",
          "name": "str",
          "type": "string"
        }
      ],
      "name": "StringTooLong",
      "type": "error"
    },
    {
      "anonymous": false,
      "inputs": [],
      "name": "EIP712DomainChanged",
      "type": "event"
    },
    {
      "inputs": [],
      "name": "eip712Domain",
      "outputs": [
        {
          "internalType": "bytes1",
          "name": "fields",
          "type": "bytes1"
        },
        {
          "internalType": "string",
          "name": "name",
          "type": "string"
        },
        {
          "internalType": "string",
          "name": "version",
          "type": "string"
        },
        {
          "internalType": "uint256",
          "name": "chainId",
          "type": "uint256"
        },
        {
          "internalType": "address",
          "name": "verifyingContract",
          "type": "address"
        },
        {
          "internalType": "bytes32",
          "name": "salt",
          "type": "bytes32"
        },
        {
          "internalType": "uint256[]",
          "name": "extensions",
          "type": "uint256[]"
        }
      ],
      "stateMutability": "view",
      "type": "function"
    },
    {
      "inputs": [
        {
          "components": [
            {
              "internalType": "address",
              "name": "from",
              "type": "address"
            },
            {
              "internalType": "address",
              "name": "to",
              "type": "address"
            },
            {
              "internalType": "uint256",
              "name": "value",
              "type": "uint256"
            },
            {
              "internalType": "uint256",
              "name": "gas",
              "type": "uint256"
            },
            {
              "internalType": "uint256",
              "name": "nonce",
              "type": "uint256"
            },
            {
              "internalType": "bytes",
              "name": "data",
              "type": "bytes"
            },
            {
              "internalType": "uint256",
              "name": "deadline",
              "type": "uint256"
            }
          ],
          "internalType": "struct MinimalForwarder.ForwardRequest",
          "name": "req",
          "type": "tuple"
        },
        {
          "internalType": "bytes",
          "name": "signature",
          "type": "bytes"
        }
      ],
      "name": "execute",
      "outputs": [
        {
          "internalType": "bool",
          "name": "",
          "type": "bool"
        },
        {
          "internalType": "bytes",
          "name": "",
          "type": "bytes"
        }
      ],
      "stateMutability": "payable",
      "type": "function"
    },
    {
      "inputs": [
        {
          "internalType": "address",
          "name": "from",
          "type": "address"
        }
      ],
      "name": "getNonce",
      "outputs": [
        {
          "internalType": "uint256",
          "name": "",
          "type": "uint256"
        }
      ],
      "stateMutability": "view",
      "type": "function"
    },
    {
      "inputs": [
        {
          "components": [
            {
              "internalType": "address",
              "name": "from",
              "type": "address"
            },
            {
              "internalType": "address",
              "name": "to",
              "type": "address"
            },
            {
              "internalType": "uint256",
              "name": "value",
              "type": "uint256"
            },
            {
              "internalType": "uint256",
              "name": "gas",
              "type": "uint256"
            },
            {
              "internalType": "uint256",
              "name": "nonce",
              "type": "uint256"
            },
            {
              "internalType": "bytes",
              "name": "data",
              "type": "bytes"
            },
            {
              "internalType": "uint256",
              "name": "deadline",
              "type": "uint256"
            }
          ],
          "internalType": "struct MinimalForwarder.ForwardRequest",
          "name": "req",
          "type": "tuple"
        },
        {
          "internalType": "bytes",
          "name": "signature",
          "type": "bytes"
        }
      ],
      "name": "verify",
      "outputs": [
        {
          "internalType": "bool",
          "name": "",
          "type": "bool"
        }
      ],
      "stateMutability": "view",
      "type": "function"
    }
  ],
  "bytecode": "0x6101606040523480156200001257600080fd5b506040518060400160405280601081526020017f4d696e696d616c466f72776172646572000000000000000000000000000000008152506040518060400160405280600581526020017f302e302e31000000000000000000000000000000000000000000000000000000815250620000956000836200013560201b90919060201c565b6101208181525050620000b36001826200013560201b90919060201c565b6101408181525050818051906020012060e08181525050808051906020012061010081815250504660a08181525050620000f26200018d60201b60201c565b608081815250503073ffffffffffffffffffffffffffffffffffffffff1660c08173ffffffffffffffffffffffffffffffffffffffff16815250505050620007e5565b60006020835110156200015b576200015383620001ea60201b60201c565b905062000187565b826200016d836200025760201b60201c565b60000190816200017e9190620004db565b5060ff60001b90505b92915050565b60007f8b73c3c69bb8fe3d512ecc4cf759cc79239f7b179b0ffacaa9a75d522b39400f60e051610100514630604051602001620001cf95949392919062000633565b60405160208183030381529060405280519060200120905090565b600080829050601f815111156200023a57826040517f305a27a90000000000000000000000000000000000000000000000000000000081526004016200023191906200071f565b60405180910390fd5b805181620002489062000775565b60001c1760001b915050919050565b6000819050919050565b600081519050919050565b7f4e487b7100000000000000000000000000000000000000000000000000000000600052604160045260246000fd5b7f4e487b7100000000000000000000000000000000000000000000000000000000600052602260045260246000fd5b60006002820490506001821680620002e357607f821691505b602082108103620002f957620002f86200029b565b5b50919050565b60008190508160005260206000209050919050565b60006020601f8301049050919050565b600082821b905092915050565b600060088302620003637fffffffffffffffffffffffffffffffffffffffffffffffffffffffffffffffff8262000324565b6200036f868362000324565b95508019841693508086168417925050509392505050565b6000819050919050565b6000819050919050565b6000620003bc620003b6620003b08462000387565b62000391565b62000387565b9050919050565b6000819050919050565b620003d8836200039b565b620003f0620003e782620003c3565b84845462000331565b825550505050565b600090565b62000407620003f8565b62000414818484620003cd565b505050565b5b818110156200043c5762000430600082620003fd565b6001810190506200041a565b5050565b601f8211156200048b576200045581620002ff565b620004608462000314565b8101602085101562000470578190505b620004886200047f8562000314565b83018262000419565b50505b505050565b600082821c905092915050565b6000620004b06000198460080262000490565b1980831691505092915050565b6000620004cb83836200049d565b9150826002028217905092915050565b620004e68262000261565b67ffffffffffffffff8111156200050257620005016200026c565b5b6200050e8254620002ca565b6200051b82828562000440565b600060209050601f8311600181146200055357600084156200053e578287015190505b6200054a8582620004bd565b865550620005ba565b601f1984166200056386620002ff565b60005b828110156200058d5784890151825560018201915060208501945060208101905062000566565b86831015620005ad5784890151620005a9601f8916826200049d565b8355505b6001600288020188555050505b505050505050565b6000819050919050565b620005d781620005c2565b82525050565b620005e88162000387565b82525050565b600073ffffffffffffffffffffffffffffffffffffffff82169050919050565b60006200061b82620005ee565b9050919050565b6200062d816200060e565b82525050565b600060a0820190506200064a6000830188620005cc565b620006596020830187620005cc565b620006686040830186620005cc565b620006776060830185620005dd565b62000686608083018462000622565b9695505050505050565b600082825260208201905092915050565b60005b83811015620006c1578082015181840152602081019050620006a4565b60008484015250505050565b6000601f19601f8301169050919050565b6000620006eb8262000261565b620006f7818562000690565b935062000709818560208601620006a1565b6200071481620006cd565b840191505092915050565b600060208201905081810360008301526200073b8184620006de565b905092915050565b600081519050919050565b6000819050602082019050919050565b60006200076c8251620005c2565b80915050919050565b6000620007828262000743565b826200078e846200074e565b90506200079b816200075e565b92506020821015620007de57620007d97fffffffffffffffffffffffffffffffffffffffffffffffffffffffffffffffff8360200360080262000324565b831692505b5050919050565b60805160a05160c05160e0516101005161012051610140516116ad62000840600039600061065b0152600061062001526000610a3b01526000610a1a01526000610691015260006106e70152600061071001526116ad6000f3fe60806040526004361061003f5760003560e01c8063019fe885146100445780632d0335ab1461008157806344d46c8e146100be57806384b0196e146100ef575b600080fd5b34801561005057600080fd5b5061006b60048036038101906100669190610cd6565b610120565b6040516100789190610d6d565b60405180910390f35b34801561008d57600080fd5b506100a860048036038101906100a39190610de6565b6102dc565b6040516100b59190610e2c565b60405180910390f35b6100d860048036038101906100d39190610cd6565b610325565b6040516100e6929190610ed7565b60405180910390f35b3480156100fb57600080fd5b50610104610527565b604051610117979695949392919061107d565b60405180910390f35b60008061022f84848080601f016020809104026020016040519081016040528093929190818152602001838380828437600081840152601f19601f820116905080830192505050505050506102217fcba4d57374e675381307d0bad9bef9fa78fe7474b8a33951295c80521dcfb9838860000160208101906101a29190610de6565b8960200160208101906101b59190610de6565b8a604001358b606001358c608001358d8060a001906101d49190611110565b6040516101e29291906111b2565b60405180910390208e60c001356040516020016102069897969594939291906111cb565b604051602081830303815290604052805190602001206105d1565b6105eb90919063ffffffff16565b905084608001356002600087600001602081019061024d9190610de6565b73ffffffffffffffffffffffffffffffffffffffff1673ffffffffffffffffffffffffffffffffffffffff168152602001908152602001600020541480156102d257508460000160208101906102a39190610de6565b73ffffffffffffffffffffffffffffffffffffffff168173ffffffffffffffffffffffffffffffffffffffff16145b9150509392505050565b6000600260008373ffffffffffffffffffffffffffffffffffffffff1673ffffffffffffffffffffffffffffffffffffffff168152602001908152602001600020549050919050565b60006060610334858585610120565b610373576040517f08c379a000000000000000000000000000000000000000000000000000000000815260040161036a906112bb565b60405180910390fd5b60008560c00135148061038a5750428560c0013510155b6103c9576040517f08c379a00000000000000000000000000000000000000000000000000000000081526004016103c09061134d565b60405180910390fd5b600185608001356103da919061139c565b600260008760000160208101906103f19190610de6565b73ffffffffffffffffffffffffffffffffffffffff1673ffffffffffffffffffffffffffffffffffffffff168152602001908152602001600020819055506000808660200160208101906104459190610de6565b73ffffffffffffffffffffffffffffffffffffffff1687606001358860400135898060a001906104759190611110565b8b60000160208101906104889190610de6565b60405160200161049a93929190611418565b6040516020818303038152906040526040516104b69190611473565b600060405180830381858888f193505050503d80600081146104f4576040519150601f19603f3d011682016040523d82523d6000602084013e6104f9565b606091505b5091509150603f876060013561050f91906114b9565b5a1161051757fe5b8181935093505050935093915050565b60006060806000806000606061053b610617565b610543610652565b46306000801b600067ffffffffffffffff811115610564576105636114ea565b5b6040519080825280602002602001820160405280156105925781602001602082028036833780820191505090505b507f0f00000000000000000000000000000000000000000000000000000000000000959493929190965096509650965096509650965090919293949596565b60006105e46105de61068d565b83610744565b9050919050565b6000806000806105fb8686610785565b92509250925061060b82826107e1565b82935050505092915050565b606061064d60007f000000000000000000000000000000000000000000000000000000000000000061094590919063ffffffff16565b905090565b606061068860017f000000000000000000000000000000000000000000000000000000000000000061094590919063ffffffff16565b905090565b60007f000000000000000000000000000000000000000000000000000000000000000073ffffffffffffffffffffffffffffffffffffffff163073ffffffffffffffffffffffffffffffffffffffff1614801561070957507f000000000000000000000000000000000000000000000000000000000000000046145b15610736577f00000000000000000000000000000000000000000000000000000000000000009050610741565b61073e6109f5565b90505b90565b60006040517f190100000000000000000000000000000000000000000000000000000000000081528360028201528260228201526042812091505092915050565b600080600060418451036107ca5760008060006020870151925060408701519150606087015160001a90506107bc88828585610a8b565b9550955095505050506107da565b60006002855160001b9250925092505b9250925092565b600060038111156107f5576107f4611519565b5b82600381111561080857610807611519565b5b0315610941576001600381111561082257610821611519565b5b82600381111561083557610834611519565b5b0361086c576040517ff645eedf00000000000000000000000000000000000000000000000000000000815260040160405180910390fd5b600260038111156108805761087f611519565b5b82600381111561089357610892611519565b5b036108d8578060001c6040517ffce698f70000000000000000000000000000000000000000000000000000000081526004016108cf9190610e2c565b60405180910390fd5b6003808111156108eb576108ea611519565b5b8260038111156108fe576108fd611519565b5b0361094057806040517fd78bce0c0000000000000000000000000000000000000000000000000000000081526004016109379190611548565b60405180910390fd5b5b5050565b606060ff60001b83146109625761095b83610b7f565b90506109ef565b81805461096e90611592565b80601f016020809104026020016040519081016040528092919081815260200182805461099a90611592565b80156109e75780601f106109bc576101008083540402835291602001916109e7565b820191906000526020600020905b8154815290600101906020018083116109ca57829003601f168201915b505050505090505b92915050565b60007f8b73c3c69bb8fe3d512ecc4cf759cc79239f7b179b0ffacaa9a75d522b39400f7f00000000000000000000000000000000000000000000000000000000000000007f00000000000000000000000000000000000000000000000000000000000000004630604051602001610a709594939291906115c3565b60405160208183030381529060405280519060200120905090565b60008060007f7fffffffffffffffffffffffffffffff5d576e7357a4501ddfe92f46681b20a08460001c1115610acb576000600385925092509250610b75565b600060018888888860405160008152602001604052604051610af09493929190611632565b6020604051602081039080840390855afa158015610b12573d6000803e3d6000fd5b505050602060405103519050600073ffffffffffffffffffffffffffffffffffffffff168173ffffffffffffffffffffffffffffffffffffffff1603610b6657600060016000801b93509350935050610b75565b8060008060001b935093509350505b9450945094915050565b60606000610b8c83610bf3565b90506000602067ffffffffffffffff811115610bab57610baa6114ea565b5b6040519080825280601f01601f191660200182016040528015610bdd5781602001600182028036833780820191505090505b5090508181528360208201528092505050919050565b60008060ff8360001c169050601f811115610c3a576040517fb3512b0c00000000000000000000000000000000000000000000000000000000815260040160405180910390fd5b80915050919050565b600080fd5b600080fd5b600080fd5b600060e08284031215610c6857610c67610c4d565b5b81905092915050565b600080fd5b600080fd5b600080fd5b60008083601f840112610c9657610c95610c71565b5b8235905067ffffffffffffffff811115610cb357610cb2610c76565b5b602083019150836001820283011115610ccf57610cce610c7b565b5b9250929050565b600080600060408486031215610cef57610cee610c43565b5b600084013567ffffffffffffffff811115610d0d57610d0c610c48565b5b610d1986828701610c52565b935050602084013567ffffffffffffffff811115610d3a57610d39610c48565b5b610d4686828701610c80565b92509250509250925092565b60008115159050919050565b610d6781610d52565b82525050565b6000602082019050610d826000830184610d5e565b92915050565b600073ffffffffffffffffffffffffffffffffffffffff82169050919050565b6000610db382610d88565b9050919050565b610dc381610da8565b8114610dce57600080fd5b50565b600081359050610de081610dba565b92915050565b600060208284031215610dfc57610dfb610c43565b5b6000610e0a84828501610dd1565b91505092915050565b6000819050919050565b610e2681610e13565b82525050565b6000602082019050610e416000830184610e1d565b92915050565b600081519050919050565b600082825260208201905092915050565b60005b83811015610e81578082015181840152602081019050610e66565b60008484015250505050565b6000601f19601f8301169050919050565b6000610ea982610e47565b610eb38185610e52565b9350610ec3818560208601610e63565b610ecc81610e8d565b840191505092915050565b6000604082019050610eec6000830185610d5e565b8181036020830152610efe8184610e9e565b90509392505050565b60007fff0000000000000000000000000000000000000000000000000000000000000082169050919050565b610f3c81610f07565b82525050565b600081519050919050565b600082825260208201905092915050565b6000610f6982610f42565b610f738185610f4d565b9350610f83818560208601610e63565b610f8c81610e8d565b840191505092915050565b610fa081610da8565b82525050565b6000819050919050565b610fb981610fa6565b82525050565b600081519050919050565b600082825260208201905092915050565b6000819050602082019050919050565b610ff481610e13565b82525050565b60006110068383610feb565b60208301905092915050565b6000602082019050919050565b600061102a82610fbf565b6110348185610fca565b935061103f83610fdb565b8060005b838110156110705781516110578882610ffa565b975061106283611012565b925050600181019050611043565b5085935050505092915050565b600060e082019050611092600083018a610f33565b81810360208301526110a48189610f5e565b905081810360408301526110b88188610f5e565b90506110c76060830187610e1d565b6110d46080830186610f97565b6110e160a0830185610fb0565b81810360c08301526110f3818461101f565b905098975050505050505050565b600080fd5b600080fd5b600080fd5b6000808335600160200384360303811261112d5761112c611101565b5b80840192508235915067ffffffffffffffff82111561114f5761114e611106565b5b60208301925060018202360383131561116b5761116a61110b565b5b509250929050565b600081905092915050565b82818337600083830152505050565b60006111998385611173565b93506111a683858461117e565b82840190509392505050565b60006111bf82848661118d565b91508190509392505050565b6000610100820190506111e1600083018b610fb0565b6111ee602083018a610f97565b6111fb6040830189610f97565b6112086060830188610e1d565b6112156080830187610e1d565b61122260a0830186610e1d565b61122f60c0830185610fb0565b61123c60e0830184610e1d565b9998505050505050505050565b7f4d696e696d616c466f727761726465723a207369676e617475726520646f657360008201527f206e6f74206d6174636820726571756573740000000000000000000000000000602082015250565b60006112a5603283610f4d565b91506112b082611249565b604082019050919050565b600060208201905081810360008301526112d481611298565b9050919050565b7f4d696e696d616c466f727761726465723a20726571756573742065787069726560008201527f6400000000000000000000000000000000000000000000000000000000000000602082015250565b6000611337602183610f4d565b9150611342826112db565b604082019050919050565b600060208201905081810360008301526113668161132a565b9050919050565b7f4e487b7100000000000000000000000000000000000000000000000000000000600052601160045260246000fd5b60006113a782610e13565b91506113b283610e13565b92508282019050808211156113ca576113c961136d565b5b92915050565b60008160601b9050919050565b60006113e8826113d0565b9050919050565b60006113fa826113dd565b9050919050565b61141261140d82610da8565b6113ef565b82525050565b600061142582858761118d565b91506114318284611401565b601482019150819050949350505050565b600061144d82610e47565b6114578185611173565b9350611467818560208601610e63565b80840191505092915050565b600061147f8284611442565b915081905092915050565b7f4e487b7100000000000000000000000000000000000000000000000000000000600052601260045260246000fd5b60006114c482610e13565b91506114cf83610e13565b9250826114df576114de61148a565b5b828204905092915050565b7f4e487b7100000000000000000000000000000000000000000000000000000000600052604160045260246000fd5b7f4e487b7100000000000000000000000000000000000000000000000000000000600052602160045260246000fd5b600060208201905061155d6000830184610fb0565b92915050565b7f4e487b7100000000000000000000000000000000000000000000000000000000600052602260045260246000fd5b600060028204905060018216806115aa57607f821691505b6020821081036115bd576115bc611563565b5b50919050565b600060a0820190506115d86000830188610fb0565b6115e56020830187610fb0565b6115f26040830186610fb0565b6115ff6060830185610e1d565b61160c6080830184610f97565b9695505050505050565b600060ff82169050919050565b61162c81611616565b82525050565b60006080820190506116476000830187610fb0565b6116546020830186611623565b6116616040830185610fb0565b61166e6060830184610fb0565b9594505050505056fea2646970667358221220a859b90e5eef6b4d9a0c5b85f78b8a449c140b2af0d5b40d24915839dc364c6264736f6c63430008140033",
  "linkReferences": {},
  "deployedLinkReferences": {}
}